:020000040800F2
:1000000078460020AD0100089D0A0008C1040008E0
:10001000990A0008B5020008B90F000800000000A6
:10002000000000000000000000000000210F000898
:10003000B9020008000000000D0B0008250F0008A1
:10004000C7010008C7010008C7010008C701000870
:10005000C7010008C7010008C7010008C701000860
:10006000C7010008C7010008C7010008C701000850
:10007000C7010008C7010008C7010008C701000840
:10008000C7010008C7010008C7010008C701000830
:10009000C7010008C7010008C7010008C701000820
:1000A000C7010008C7010008C7010008C701000810
:1000B000C7010008C7010008C7010008C701000800
:1000C000C7010008C7010008C7010008C7010008F0
:1000D000C7010008C7010008C7010008C7010008E0
:1000E000C7010008C7010008C7010008C7010008D0
:1000F000C7010008C7010008C7010008C7010008C0
:10010000C7010008C7010008C7010008C7010008AF
:10011000C7010008C7010008C7010008C70100089F
:10012000C7010008C7010008C7010008C70100088F
:1001300000F002F800F02BF80AA090E8000C8244CE
:100140008344AAF10107DA4501D100F020F8AFF2AB
:10015000090EBAE80F0013F0010F18BFFB1A43F0A5
:10016000010318471046000020460000103A24BF43
:1001700078C878C1FAD8520724BF30C830C144BF0C
:1001800004680C6070471FB51FBD10B510BD00F0AE
:1001900057F81146FFF7F7FF01F09CF900F075F8EA
:1001A00003B4FFF7F2FF03BC00F07CF80948804776
:1001B00009480047FEE7FEE7FEE7FEE7FEE7FEE749
:1001C000FEE7FEE7FEE7FEE704480549054A064B61
:1001D00070470000B50F000831010008784000208A
:1001E0007846002078420020784200204FF000023C
:1001F00000B5134694469646203922BFA0E80C501D
:10020000A0E80C50B1F12001BFF4F7AF090728BFF7
:10021000A0E80C5048BF0CC05DF804EB890028BF73
:1002200040F8042B08BF704748BF20F8022B11F09C
:10023000804F18BF00F8012B704770477047704718
:10024000754600F02BF8AE4605006946534620F08F
:100250000700854618B020B5FFF7B6FFBDE820407F
:100260004FF000064FF000074FF000084FF0000B72
:10027000AC46ACE8C009ACE8C009ACE8C009ACE8E1
:10028000C00921F007018D46704710B50446AFF351
:1002900000802046BDE81040FFF782BF004870474D
:1002A0000800002001491820ABBEFEE7260002002E
:1002B00070470000FFE7FEE77047000080B58EB092
:1002C0000D90ADF83210ADF830200D986A461D2122
:1002D0000491516021210591116041F66811C0F629
:1002E000000155220523069300F0B0FE42F670404F
:1002F000C0F6000001F034F90A200B900B9801F0D1
:1003000063F80A900D980A996B460F2203921A60BF
:1003100053223223029300F0F7FF029B03990D98BA
:100320006A4611602E216A2200F0E6FE0020099044
:10033000099801F049F8029B039A08900D980899D2
:10034000EC46CCF80020702200F0DEFF43F6C0300F
:10035000C0F6000001F004F9039A44F26A70C0F696
:10036000000007900D9807996B461A607D223C2388
:1003700000F0CAFFDDF810C00599069B0D986A468B
:10038000C2F804C0116043F24641C0F60001962253
:1003900000F05CFE0EB080BD80B584B00390ADF877
:1003A0000A1003986A461D2151602121116042F212
:1003B000E201C0F60001D722052300F047FE04B099
:1003C00080BD000080B58EB08DF837000C91ADF87F
:1003D0002E20ADF82C30BDF82E0001F0E5F90A9082
:1003E000BDF82C0001F0E0F9099009980A9901F094
:1003F000FDF80021C4F2C82101F0EAF9089008983C
:1004000001F0B6F9ADF81E009DF83700C00778B1CD
:10041000FFE70C986A461D2151601221116042F6D7
:100420005C01C0F600011922052300F00FFE0EE06A
:100430000C986A461D2151602321116043F67C719E
:10044000C0F600011422052300F000FEFFE742F68B
:100450007040C0F6000001F083F8BDF81E00069061
:10046000069800F0B1FF0590059801F09FF80B2168
:100470004843C0F13300ADF812000C980599BDF85F
:100480001220EC460F230293CCF80030322300F008
:100490003BFF43F6C030C0F6000001F061F8029A5D
:1004A00044F26D70C0F6000003900C9803996B46FF
:1004B0001A6017223C2300F027FF0EB080BD000019
:1004C000FFE7FEE782B00190019A41F21C00C4F2FE
:1004D0000200016811430160006801990840009022
:1004E000009802B07047000082B00190019A41F27A
:1004F0001800C4F20200016811430160006801990C
:1005000008400090009802B07047000082B001904F
:10051000019A41F21800C4F202000168114301601F
:100520000068019908400090009802B070470000F0
:1005300082B00190019A41F21800C4F202000168F1
:10054000114301600068019908400090009802B0D2
:100550007047000042F20000C4F20200006800F0A0
:100560000700704781B0009042F20001C4F202011E
:10057000086820F00700009A1043086001B0704737
:100580000421C4F20101086820F0E06008600868F6
:1005900040F000700860704780B586B00590049107
:1005A0000498B0F801000390039890FAA0F0B0FA14
:1005B00080F00290FFE703980299C840002849D0D4
:1005C000FFE703980299C840C00700283ED0FFE724
:1005D0000298072806D8FFE7029940F201108840E8
:1005E000019009E00298A0F108014FF00110884045
:1005F00040F080600190FFE704984068082807D128
:10060000FFE705980199049A126900F06FF8FFE777
:1006100005980199049A526800F034F804984068EB
:10062000012805D0FFE70498406809280DD1FFE7AD
:1006300005980199049A926800F06EF8059801995E
:10064000049AD26800F038F8FFE7FFE7029801301B
:100650000290B0E7002006B080BD000082B001909B
:100660000091BDF801000199486102B07047000097
:1006700082B001900091BDF801000199086102B0BB
:100680007047000084B003900291019203989DF896
:100690000B100844009000990868029A92FAA2F29E
:1006A000B2FA82F293000F229A409043019A9A4044
:1006B0001043086004B0704784B003900291019227
:1006C00003989DF80B100844009000990868029A5E
:1006D00092FAA2F2B2FA82F2930004229A40904374
:1006E000019A9A401043086004B0704783B00290AA
:1006F000019100920298C06801990A0A20EA11202B
:10070000009992FAA2F2B2FA82F291400843029959
:10071000C86003B07047000084B00390029101925A
:1007200003989DF80B100844009000990868029AFD
:1007300092FAA2F2B2FA82F2930003229A40904314
:10074000019A9A401043086004B0704780B582B0A7
:10075000019001984FF47A7100F002F802B080BD68
:1007600082B00190009101980099B0FBF1F001383E
:100770004EF21401CEF2000108604EF21801CEF2E2
:100780000001002008604EF21001CEF200010520A9
:10079000086002B07047000041F20400C4F2020099
:1007A000006800F00C00704741F20001C4F2020141
:1007B000086840F4803008607047000041F2000093
:1007C000C4F202000068C0F34040704782B001905C
:1007D000009141F20401C4F20201086820F47C1087
:1007E000019A02F44032009B1A431043086002B0A1
:1007F0007047000041F20001C4F20201086840F0B5
:10080000807008607047000041F20000C4F20200EE
:100810000068C0F34060704781B0009041F204016D
:10082000C4F20201086820F0F000009A104308604A
:1008300001B0704781B0009041F20401C4F202019E
:10084000086820F4E060009A1043086001B0704727
:1008500081B0009041F20401C4F20201086820F462
:100860006050009A1043086001B0704781B000905A
:1008700041F20401C4F20201086820F00300009A6A
:100880001043086001B0704781B00090009908687B
:1008900040F04000086001B07047000080B584B0AF
:1008A0000390029101208DF80700039800F04CF8A6
:1008B000C0BBFFE7039800684FF6BF718843029AF8
:1008C00000921168D2F804E0D2F808C0D36841EA77
:1008D0000E0141EA0C011943136919435369194385
:1008E00093691943D3691943126A11430843039961
:1008F00008600398406820F004000299C98A084300
:10090000039948600298006AB0F5005F06D1FFE7DE
:1009100003980299496A00F01FF8FFE700208DF85C
:100920000700FFE70399C86920F40060C8619DF8DB
:10093000070004B080BD000081B00090009880687E
:10094000C0B2C00901B0704781B000900098006843
:10095000C0F3801001B0704782B001900091BDF8E3
:1009600000000199086102B07047000083B0029056
:100970008DF8071002980C3000909DF80700009940
:10098000087003B07047000081B00090009840F2FA
:100990000001C2F20001086001B0704782B001900E
:1009A0004EF21000CEF2000000680090009801980E
:1009B000013020B1FFE7019801300190FFE7FFE728
:1009C000019870B1FFE74EF21000CEF2000000680F
:1009D000C003002804D5FFE7019801380190FFE724
:1009E000EEE702B07047000080B52020FFF78EFDD3
:1009F0000420FFF78BFD1020FFF788FD80BD00006D
:100A000080B594B00AA803902821FFF7EFFB0020DF
:100A10000490099008900790069005904FF480503C
:100A2000FFF786FD04200090FFF782FD04984AF24C
:100A3000A00105910921069103210791089040F634
:100A40000000C4F20100029005A90191FFF7A4FD86
:100A5000009A0199029844F2400305930692FFF729
:100A60009BFD039904980A904FF482720B920C90AC
:100A70000D900E904FF400720F9208221092119078
:100A800012900A20139043F20000C4F20100FFF715
:100A900005FF14B080BD0000FFE7FEE7FFE7FEE7BB
:100AA00088B0079006910592079800F0070004901F
:100AB0000498C0F10700052803D3FFE70420019044
:100AC00004E00498C0F107000190FFE7019803904B
:100AD00004980430062803D8FFE70020009003E0C4
:100AE000049803380090FFE7009802900698039955
:100AF000012202FA01F101390840029B9840059950
:100B00009A40013A1140084308B07047704700000E
:100B100080B582B08DF8070000F022F900F034F9BA
:100B20009DF8070000F0FAF800F010F902B080BD5F
:100B300080B582B08DF8070000F012F900F01AF9C4
:100B40009DF8070000F0EAF800F000F902B080BD5F
:100B500080B586B000F022F900F0D0F90A200490A8
:100B600000F0D6F900F0C0F93220059000F0D0F97D
:100B7000FD200390FFF7CCFF1220FFF7D9FFAE2036
:100B8000FFF7C6FFB320FFF7C3FF9120FFF7D0FFA9
:100B9000CA20FFF7BDFF3F20FFF7CAFFA220FFF7E3
:100BA000B7FF00200190FFF7C3FFA120FFF7B0FFC0
:100BB0000198FFF7BDFFA0200290FFF7A9FF1420C6
:100BC000FFF7B6FF1120FFF7B3FFB520FFF7A0FF37
:100BD0000198FFF7ADFFAB20FFF79AFF0120FFF769
:100BE000A7FFB420FFF794FF0298FFF7A1FF039837
:100BF000FFF79EFFC120FFF78BFFFF20FFF798FF55
:100C0000C720FFF785FF0F20FFF792FFB920FFF7FE
:100C10007FFFB120FFF77CFFE220FFF789FFD120A3
:100C2000FFF776FF8220FFF783FF2020FFF780FF8A
:100C3000BB20FFF76DFF1F20FFF77AFFB620FFF7FD
:100C400067FF0820FFF774FFBE20FFF761FF072052
:100C5000FFF76EFFA620FFF75BFFA920FFF758FF05
:100C6000049800F055F9AF20FFF752FF059800F007
:100C70004FF906B080BD000080B582B001900091B0
:100C80005C20FFF745FF00F06BF800F073F8019867
:100C9000009900F02BF800F059F802B080BD000078
:100CA00080B582B08DF807008DF806108DF805200C
:100CB0008DF804301520FFF72BFF9DF807001C303E
:100CC000C0B2FFF735FF9DF806001C30C0B2FFF739
:100CD0002FFF7520FFF71CFF9DF80500FFF728FF89
:100CE0009DF80400FFF724FF02B080BD80B584B0FA
:100CF0000390029100200190FFE701980299884239
:100D00000AD2FFE703980199405C00F007F8FFE77B
:100D1000019801300190F0E704B080BD80B582B049
:100D20008DF807009DF8071043F20000C4F201009F
:100D3000FFF71CFEFFE743F20000C4F20100FFF7DB
:100D4000FBFD08B1FFE7F6E702B080BD80B540F6D5
:100D50000000C4F2010040F20221FFF789FC80BDCF
:100D600080B540F60000C4F2010040F20221FFF716
:100D700075FC80BD80B541F20000C4F2010042F272
:100D80002001FFF775FC80BD80B541F20000C4F280
:100D9000010042F22001FFF761FC80BD10B59EB05A
:100DA00040F60000C4F201000D9040F202210C91C7
:100DB000FFF754FC41F20000C4F20100029042F23D
:100DC00020010391FFF74AFC029840F2044101918F
:100DD000FFF744FC0D980C9A00210A911D911C917B
:100DE0001B911A9119911992012208921A920222CA
:100DF00007921B921C9119A90691FFF7CDFB06994A
:100E0000079BDDF820C00A9ADDF80CE00298CDF8C7
:100E100064E0CDF868C01B931C92FFF7BDFB0699F8
:100E2000079BDDF820C00A9ADDF804E00298CDF8AF
:100E300064E0CDF868C01B931C92FFF7ADFB039BE9
:100E400006990A9A0D981993092304931A93032378
:100E500005931B931C92FFF79FFBDDF810C0059BC9
:100E600006990A9A0D9848F2800ECDF864E0CDF804
:100E700068C01B931C92FFF78FFB06990D9844F2F4
:100E80004002199204221A92FFF786FB0FA80B90DA
:100E900028210991FFF7AAF9DDF81CC0089B099ADF
:100EA0000A980B990F904FF4827ECDF840E0119094
:100EB000CDF848C013934FF4007314931592169015
:100EC00017900A20189043F20000C4F201000E901F
:100ED000FFF7E4FC0C990D98FFF7CAFB0E98FFF79B
:100EE000D3FC1EB010BD000080B541F20000C4F27A
:100EF000010040F20441FFF7BBFB80BD80B541F229
:100F00000000C4F2010040F20441FFF7A7FB80BDDE
:100F100080B582B001900198FFF740FD02B080BD1E
:100F2000704700007047000080B582B00220FFF7D4
:100F300019FBFFE7FFF70EFB022801D0FFE7F9E7F7
:100F4000FFF732FCFFE7FFF739FC012801D0FFE78C
:100F5000F9E74FF480304FF4E011FFF737FCFFF76B
:100F600049FCFFE7FFF750FC012801D0FFE7F9E754
:100F700000200190FFF750FC4FF48060FFF75AFC0F
:100F80000198FFF765FC0220FFF770FCFFE7FFF711
:100F900003FC082801D0FFE7F9E74AF20020C0F27D
:100FA0004A400090FFF7D2FB0098FFF7EDFC02B03B
:100FB00080BD000070470000FFE7FEE74EF60C50D2
:100FC000CEF200000068C0F30220704782B08DF8B6
:100FD000070000919DF9070000280AD4FFE7009858
:100FE00000019DF907104EF20042CEF20002885433
:100FF0000BE0009800019DF8071001F00F014EF67C
:101000001452CEF200028854FFE702B0704700008D
:1010100083B00290029800F0070000904EF60C5149
:10102000CEF200010868019001984FF6FF021040CF
:1010300001900198009A40EA02200022C0F2FA5280
:10104000104301900198086003B0704710B586B056
:101050008C46864609980899CDF814E0CDF810C062
:10106000ADF80E20ADF80C30ADF80A10ADF8080060
:101070000020ADF80600BDF80C00ADF80400FFE755
:10108000BDF80400BDF80C10BDF8082011448842DA
:1010900030DAFFE7BDF80E00ADF80200FFE7BDF85B
:1010A0000200BDF80E10BDF80A20114488421ADA79
:1010B000FFE70598BDF80210BDF80420049BBDF8B9
:1010C00006C033F81C30C3F3071300F0B9F8BDF8BD
:1010D00006000130ADF80600FFE7BDF80200013060
:1010E000ADF80200DBE7FFE7BDF804000130ADF822
:1010F0000400C5E706B010BD80B588B084460A98E4
:10110000CDF81CC08DF81B10ADF81820ADF81630C6
:101110008DF8150040F26800C2F20000006808B9BE
:10112000FFE78AE040F26800C2F2000001680A7A34
:101130009DF81B10891A8DF81B10016849689DF8ED
:101140001B2001EBC2010491006800680390049821
:101150000088ADF80A00049880788DF8090004989A
:10116000C0788DF80800049840798DF8070004983D
:1011700080798DF8060000208DF805008DF80400B8
:101180008DF803008DF802008DF80300FFE79DF84D
:1011900003009DF8081088424FDAFFE700208DF821
:1011A0000200FFE79DF802009DF8091088423DDA31
:1011B000FFE79DF80500411C8DF80510400750B968
:1011C000FFE70398BDF80A104A1CADF80A20405CFE
:1011D0008DF80400FFE79DF804000006002818D5EC
:1011E000FFE70798BDF818109DF9072011449DF8F6
:1011F00002201144BDF816209DF906301A449DF8CE
:1012000003301A449DF8153089B292B200F018F8F4
:1012100000E0FFE79DF8040040008DF80400FFE7C0
:101220009DF8020001308DF80200BBE7FFE79DF852
:10123000030001308DF80300A9E708B080BD00006D
:1012400083B00290ADF80610ADF804208DF803309D
:10125000BDF8060040F20601C2F20001098801391A
:1012600088420BDCFFE7BDF8040040F20401C2F243
:10127000000109880139884201DDFFE741E0BDF83E
:10128000040040F20601C2F200010988BDF8062000
:1012900000FB012000EBD07121F00101401A012870
:1012A00017D1FFE70299BDF8040040F20602C2F22E
:1012B00000021288BDF8063000FB023000EBD0704F
:1012C0004210885C00F0F0009DF803301843885409
:1012D00017E00299BDF8040040F20602C2F20002D3
:1012E0001288BDF8063000FB023000EBD0704210CF
:1012F000885C00F00F009DF8033040EA031088542A
:10130000FFE703B07047000080B586B084460898B8
:10131000CDF814C00491ADF80E20ADF80C308DF866
:101320000B00FFE70498007820B3FFE705980499C5
:101330000978BDF80E20BDF80C309DF80BC0EE46C4
:10134000CEF800C0FFF7D8FEBDF80E0040F26801ED
:10135000C2F2000109684968049A127801EBC201DF
:1013600011F8FC1C08440130ADF80E00049801305F
:101370000490D7E706B080BD83B002908DF80710C7
:101380009DF8070040EA00108DF8060040F20400C6
:10139000C2F20000008840F20601C2F20001098892
:1013A000484300EBD07040100090FFE70098411ECA
:1013B000009138B1FFE79DF8060002994A1C02929D
:1013C0000870F3E703B0704788B0069000200590DE
:1013D000FFE705980A280CD8FFE7059A40F26C0150
:1013E000C2F2000100208854FFE705980130059003
:1013F000EFE70698049000208DF80F004CF60020CF
:10140000C3F69A300290069840B9FFE740F26C00AC
:10141000C2F2000030210170079058E000208DF8E2
:101420000700FFE70498029988420AD2FFE7029872
:101430004CF6CD41CCF6CC41A0FB0110C008029087
:10144000F0E7029818B9FFE701200290FFE7FFE7F5
:1014500004990120009031B9FFE70298002818BFD5
:1014600001200090FFE70098C00750B3FFE7FFE7B7
:101470000498029988420AD3FFE79DF80F000130D3
:101480008DF80F0002990498401A0490F0E79DF837
:101490000F0030309DF80720511C8DF8071040F2E6
:1014A0006C01C2F20001885400208DF80F000298F0
:1014B0004CF6CD41CCF6CC41A0FB0110C008029007
:1014C000C6E740F26C00C2F200000790FFE7079801
:1014D00008B0704780B584B00020029003900120CE
:1014E000FFF702F84FF08050FEF7ECFF0320FFF704
:1014F0008FFDFFF763FD029A0F21FFF7D1FA014636
:101500004FF0FF30FFF762FDFFF73AF8FFF70CFDF1
:10151000FFF76AFAFFF774FAFFF71AFBFFE740F2EA
:101520007700C2F20000009000210191FFF724FF34
:10153000009901984FF4FA624FF47A73FEF742FF74
:101540000098019A0A21FEF7B9FE00980199FEF76A
:1015500023FF0098019A114600F00CF8DFE7000025
:1015600081B00090009840F26801C2F2000108606A
:1015700001B0704780B582B00190ADF80210ADF8AF
:1015800000203F2100227F231046FFF789FB0198AE
:10159000BDF8001000EBC110BDF8021008444FF474
:1015A0000051FFF769FB02B080BD000082B00190DE
:1015B0000020ADF80200FFE70198007890B1FFE746
:1015C00001980078C02804DBFFE701980130019002
:1015D000FFE7BDF802000130ADF8020001980130CC
:1015E0000190E9E7BDF8020002B070474FF47F0CAC
:1015F0001CEAD0121EBF1CEAD11392EA0C0F93EA28
:101600000C0F00F0858090EA010F48BF42F4807211
:1016100040F4000C41F400002CF07F4120F07F40AA
:1016200000B5A2EB030281420FF2081CACEB504E56
:101630009EF800E0C0F100004FEA4E0E00FB0EFCE9
:1016400038BF49004FEA2C1C0CFB0EF34FEACE1EAC
:101650000EEB635E4FEA112C0EFB0CFC4FEAC1212E
:101660004FEA1C5300FB031102F5FA024FEA112C5A
:101670000EFB0CFC4FEA01314FEADC4C00FB0C1175
:1016800042EB2242C14228BF09184CEB03335DF8FC
:1016900004EB10EB410143EBC250B2F57C0F38BFB5
:1016A000704729D512F0F00F1CBF00F1C04000F0C8
:1016B00000407047008182838485868788898B8C6F
:1016C0008D8E8F919293959697999A9C9D9FA0A2AB
:1016D000A3A5A7A8AAACAEB0B2B3B5B7B9BCBEC0FB
:1016E000C2C5C7C9CCCED1D4D7D9DCDFE2E6E9EC9C
:1016F000F0F3F7FAFE0000004FEA400C0CF1807C9A
:10170000BCF17E4F28BF7047B0F1C04000F027B950
:101710000CEAD11390EA010F48BF42F4807262458F
:1017200038BF634507D213F47F0F16D080EA01005B
:1017300000F00040704710B500F0CBF8097EFC3E89
:1017400000F005B880EA010000F00040704780EA30
:10175000010000F0004000F002B912F47F0F04BF56
:101760000248704780EA010000F0F9B80000C07F2D
:1017700041000B0ED3F19E0208D950F400034FEA4A
:10178000032323FA02F048BF4042704710B500F02F
:10179000A0F800BF49922480002070476FF00042FB
:1017A00082EA200070470000B0FA80F310FA03F2DA
:1017B000C3F19D030AD0D90501EB1220530638BFAF
:1017C000704700F1010008BF20F0010070470000E1
:1017D0004FF47F0C1CEAD0121EBF1CEAD11392EA10
:1017E0000C0F93EA0C0F00F0478090EA010F48BFFE
:1017F00042F480724FF0004C4CEA00204CEA012188
:1018000002EB0302A0FB0113A2F50002002918BF9E
:1018100043F001035B0028BF4FEA330342EB22424F
:101820005FEA132C4CEBC2502EBFBCEB436FB2F5FA
:101830007C0F70474FEA036CBCF1004F08BF20F0EB
:101840000100B2F57C0F38BF70470BD582F0FF0264
:1018500012F5803FC8BF704700F1C040D8BF00F00C
:101860000040704700F5000C5FEA4C0C48BF704721
:10187000B0F1C04000F073B80CEAD11390EA010F48
:1018800048BF42F48072624538BF634504D280EAA3
:10189000010000F00040704710B500F01AF800BFDA
:1018A0008900013E00F007B800F009B85FEA410C7A
:1018B0005FEA1C6C08D080EA010000F050B85FEAD3
:1018C000400C5FEA1C6CF6D14FF00040A0F58000A0
:1018D00070470EF1020E2EF0030E5EF8044B244208
:1018E00004D44FEA4102B2F17F4F11D84FEA4003CE
:1018F000B3F17F4F0CD80ED14FEAD07C0CEB4C0CDF
:101900000CF1020CB2F17F4F08BF4CEBD17C04E02C
:101910004FF0080C01E04FEAD17C0CEB4C0324FAA9
:1019200003F404F00704B4F1040C06D20EEB840CAB
:10193000BDE810404CF0010C6047DFE80CF00708F0
:1019400002024FF00040A0F5800010BD08464200A2
:1019500018BFD2F1807288BF00F0004010BDFF2197
:1019600041EAD050C0057047000000000000FF00B1
:10197000FF00FF00FF00FF00FF00FF00FF00FF006F
:10198000FF00FF00FF00FF00FF00FF00000000005D
:101990000000000000000000000000000000000047
:1019A0000000000000000000000000000000000037
:1019B000FF00000000000000000000000000000028
:1019C000000000000000000000000000FF00000018
:1019D0000000000000000000000000000000000007
:1019E00000000000000000000000000000000000F7
:1019F0000000FF00000000000000000000000000E8
:101A00000000000000000000000000000000FF00D7
:101A100000000000000000000000000000000000C6
:101A200000000000FF0000000000000000000000B7
:101A300000000000FF0000000000000000000000A7
:101A40000000000000000000000000000000000096
:101A5000FF00000000000000000000000000000087
:101A600000000000FF00FF00FF0000000000000079
:101A7000000000000000FF00000000000000000067
:101A80000000000000000000000000000000000056
:101A90000000FF0000000000000000000000000047
:101AA000000000000000FF00FF00FF000000000039
:101AB0000000000000000000FF0000000000000027
:101AC0000000000000000000000000000000000016
:101AD00000000000FF000000000000000000000007
:101AE000000000000000FF00FF00FF00FF00FF00FB
:101AF00000000000000000000000FF0000000000E7
:101B000000000000000000000000000000000000D5
:101B1000000000000000FF000000000000000000C6
:101B20000000000000000000FF00FF00FF00FF00B9
:101B3000FF0000000000000000000000FF000000A7
:101B40000000000000000000000000000000000095
:101B50000000000000000000FF0000000000000086
:101B60000000000000000000FF00FF00FF00FF0079
:101B7000FF00FF00FF000000000000000000FF0069
:101B80000000000000000000000000000000000055
:101B900000000000000000000000FF000000000046
:101BA00000000000000000000000FF00FF00FF0038
:101BB000FF00FF00FF00FF00000000000000000029
:101BC000FF00000000000000000000000000000016
:101BD000000000000000000000000000FF00000006
:101BE00000000000000000000000FF00FF00FF00F8
:101BF000FF00FF00FF00FF00FF00FF0000000000EB
:101C00000000FF00000000000000000000000000D5
:101C10000000000000000000000000000000FF00C5
:101C2000000000000000000000000000FF00FF00B6
:101C3000FF00FF00FF00FF00FF00FF00FF000000AB
:101C400000000000FF000000000000000000000095
:101C50000000000000000000000000000000000084
:101C6000FF00000000000000000000000000000075
:101C7000000000000000FF00000000000000000065
:101C8000000000000000FF00000000000000000055
:101C90000000000000000000000000000000000044
:101CA0000000FF0000000000000000000000000035
:101CB0000000000000000000FF0000000000000025
:101CC0000000000000000000FF0000000000000015
:101CD0000000000000000000000000000000000004
:101CE00000000000FF0000000000000000000000F5
:101CF00000000000000000000000FF0000000000E5
:101D000000000000000000000000FF0000000000D4
:101D100000000000000000000000000000000000C3
:101D2000000000000000FF000000000000000000B4
:101D3000000000000000000000000000FF000000A4
:101D4000000000000000000000000000FF00000094
:101D50000000000000000000000000000000000083
:101D60000000000000000000FF0000000000000074
:101D70000000000000000000000000000000FF0064
:101D80000000000000000000000000000000FF0054
:101D90000000000000000000000000000000000043
:101DA00000000000000000000000FF000000000034
:101DB0000000000000000000000000000000000023
:101DC000FF00000000000000000000000000000014
:101DD000FF00000000000000000000000000000004
:101DE000000000000000000000000000FF000000F4
:101DF00000000000000000000000000000000000E3
:101E00000000FF000000000000000000FF00FF00D5
:101E1000FF00FF00FF00FF00FF00FF00FF00FF00CA
:101E2000FF00FF00FF00FF00FF00FF00FF00FF00BA
:101E3000FF00FF00FF00000000000000FF00FF00A7
:101E4000FF00FF00FF00FF00FF00FF00FF00FF009A
:101E50000000000000000000000000000000000082
:101E60000000000000000000000000000000000072
:101E7000000000000000FF00000000000000FF0064
:101E8000FF00FF00FF00FF00FF00FF00FF00FF005A
:101E9000FF00000000000000000000000000000043
:101EA0000000000000000000000000000000000032
:101EB0000000000000000000FF0000000000000023
:101EC0000000FF00FF00FF00FF00FF00FF00FF0019
:101ED0000000FF0000000000000000000000000003
:101EE00000000000000000000000000000000000F2
:101EF00000000000000000000000FF0000000000E3
:101F000000000000FF00FF00FF00FF00FF00FF00D7
:101F1000FF000000FF0000000000000000000000C3
:101F200000000000000000000000000000000000B1
:101F3000000000000000000000000000FF000000A2
:101F40000000000000000000FF00FF00FF00FF0095
:101F5000FF0000000000FF00000000000000000083
:101F60000000000000000000000000000000000071
:101F70000000000000000000000000000000FF0062
:101F800000000000000000000000FF00FF00FF0054
:101F9000FF00FF0000000000FF0000000000000044
:101FA0000000000000000000000000000000000031
:101FB0000000000000000000000000000000000021
:101FC000FF00000000000000000000000000FF0013
:101FD000FF00FF00000000000000FF000000FF0005
:101FE000FF00FF00FF00FF00FF00FF00FF00FF00F9
:101FF000FF00FF00FF00FF00FF00FF00FF00FF00E9
:102000000000FF00000000000000000000000000D1
:10201000FF00FF00FF000000000000000000FF00C4
:1020200000000000000000000000000000000000B0
:1020300000000000000000000000000000000000A0
:102040000000FF0000000000000000000000000091
:1020500000000000FF000000000000000000000081
:102060000000FF0000000000000000000000000071
:102070000000000000000000000000000000000060
:102080000000FF0000000000000000000000000051
:102090000000000000000000000000000000000040
:1020A000000000000000FF00FF00FF00FF00FF0035
:1020B000FF00FF00FF00FF00FF00FF00FF00FF0028
:1020C000FF00FF0000000000000000000000000012
:1020D0000000000000000000000000000000000000
:1020E00000000000000000000000000000000000F0
:1020F00000000000000000000000000000000000E0
:1021000000000000000000000000000000000000CF
:1026000000000000000000000000FF00FF00FF00CD
:10261000FF00FF00FF00FF00FF00FF00FF00FF00C2
:10262000FF00FF00FF00FF00FF00FF00FF00FF00B2
:10263000FF00FF00FF00FF00FF00FF00FF00FF00A2
:10264000FF00FF00FF00000000000000000000008D
:10265000000000000000000000000000000000007A
:10266000000000000000000000000000000000006A
:10267000000000000000000000000000000000005A
:10268000000000000000000000000000000000004A
:1026900000000000FF00FF00FF00FF00FF00FF0040
:1026A000FF00FF00FF00FF00FF00FF00FF00FF0032
:1026B000FF00FF00FF00FF00FF00FF00FF00FF0022
:1026C000FF00FF00FF00FF00FF00FF00FF00FF0012
:1026D00000000000000000000000000000000000FA
:1026E00000000000000000000000000000000000EA
:1026F00000000000000000000000000000000000DA
:1027000000000000000000000000000000000000C9
:102710000000FF00FF00FF00FF00FF00FF00FF00C0
:10272000FF00FF00FF00FF00FF00FF00FF00FF00B1
:10273000FF00FF00FF00FF00FF00FF00FF00FF00A1
:10274000FF00FF00FF00FF00FF00FF00FF00000090
:102750000000000000000000000000000000000079
:102760000000000000000000000000000000000069
:102770000000000000000000000000000000000059
:102780000000000000000000000000000000000049
:10279000000000000000000000000000FF00FF003B
:1027A000FF00FF00FF00FF00FF00FF00FF00FF0031
:1027B000FF00FF00FF00FF00FF00FF00FF00FF0021
:1027C000FF00FF00FF00FF00FF00FF00FF00FF0011
:1027D000FF00FF00FF00FF000000000000000000FD
:1027E00000000000000000000000000000000000E9
:1027F00000000000000000000000000000000000D9
:1028000000000000000000000000000000000000C8
:1028100000000000000000000000FF00FF00FF00BB
:10282000FF00FF00FF00FF00FF00FF00FF00FF00B0
:10283000FF00FF00FF00FF00FF00FF00FF00FF00A0
:10284000FF00FF00FF00FF00FF00FF00FF00FF0090
:10285000FF00FF00FF00000000000000FF0000007C
:102860000000FF00FF00FF0000000000000000006B
:102870000000000000000000000000000000FF0059
:10288000FF000000FF00FF0000000000000000004B
:102890000000000000000000000000000000000038
:1028A000FF00FF00FF00FF00FF000000000000002D
:1028B0000000000000000000000000000000000018
:1028C0000000FF00FF00FF00FF00FF00000000000D
:1028D00000000000000000000000000000000000F8
:1028E00000000000FF00FF000000FF00FF000000EC
:1028F00000000000000000000000000000000000D8
:1029000000000000FF00FF00FF0000000000FF00CB
:10291000FF000000000000000000000000000000B8
:1029200000000000FF00FF00FF00000000000000AA
:102930000000FF00FF000000000000000000000099
:1029400000000000FF00FF00FF000000000000008A
:10295000000000000000FF00FF0000000000000079
:10296000000000000000FF00FF00FF00000000006A
:1029700000000000000000000000FF00FF00000059
:102980000000000000000000FF00FF000000000049
:102990000000000000000000000000000000FF0038
:1029A000FF000000000000000000FF00FF0000002A
:1029B0000000000000000000000000000000000017
:1029C000FF00FF00FF00000000000000FF00FF000C
:1029D00000000000000000000000000000000000F7
:1029E0000000FF00FF000000FF00FF000000FF00EC
:1029F000FF000000000000000000000000000000D8
:102A00000000FF00FF00FF0000000000FF00FF00CB
:102A1000FF00FF00FF0000000000000000000000B9
:102A200000000000FF00FF00FF00FF00FF000000AB
:102A3000FF00FF00FF00FF0000000000000000009A
:102A4000000000000000FF00FF0000000000000088
:102A5000FF00FF000000FF00FF000000000000007A
:102A60000000000000000000FF00FF000000000068
:102A700000000000FF00FF000000FF000000000059
:102A8000000000000000000000000000FF00FF0048
:102A900000000000000000000000FF00FF00FF0039
:102AA0000000000000000000000000000000FF0027
:102AB000FF00000000000000000000000000FF0018
:102AC000FF00000000000000000000000000000007
:102AD0000000FF00FF0000000000000000000000F8
:102AE0000000FF00FF0000000000000000000000E8
:102AF00000000000FF00FF000000000000000000D8
:102B0000000000000000FF00FF00000000000000C7
:102B10000000000000000000FF00000000000000B6
:102B200000000000000000000000FF00FF000000A7
:102B3000000000000000000000000000FF00000096
:102B40000000000000000000000000000000FF0086
:102B5000FF00000000000000000000000000000076
:102B6000FF00000000000000000000000000000066
:102B70000000FF00FF000000000000000000000057
:102B800000000000FF000000000000000000000046
:102B900000000000FF00FF00FF00FF00FF0000003A
:102BA0000000000000000000FF0000000000000026
:102BB000000000000000FF00FF0000000000FF0018
:102BC000FF00FF000000000000000000FF00000008
:102BD0000000000000000000FF00FF0000000000F7
:102BE000000000000000FF00FF00FF0000000000E8
:102BF000FF000000000000000000FF00FF000000D8
:102C0000000000000000000000000000FF00FF00C6
:102C1000FF00FF00FF00FF00FF00FF00FF00FF00BC
:102C200000000000000000000000000000000000A4
:102C300000000000FF00FF00FF00FF00FF00FF009A
:102C4000FF00000000000000000000000000000085
:102C5000000000000000000000000000FF00FF0076
:102C6000FF00000000000000000000000000000065
:102C7000802C00084E31000820007E001600000065
:102C8000FFFFFE487EEFDFBF7440198667FDFF330C
:102C90000CC333FEFF99866190101F1FDEFF3F8338
:102CA000C0FC1F09FCFEF7F1E04038107C30C62064
:102CB000C640C6407C80399C013E036302630463C6
:102CC0000C3E081C0E01F83B83B83F01E03E6776DE
:102CD000E3EE1CF3C7FE3F70FFF418631C738E38DD
:102CE000E38E1870C3060861830E3871C71C71C665
:102CF00038E31840213E45283870E7FFE70E1CFCFA
:102D00009CFFC0FC08C4231084621188003E3F9DD4
:102D1000DC7E3F1F8FC7E3F1DDCFE3E008FFF39CCC
:102D2000E739CE73803E3FB8FC70381C1C1C1C1C5D
:102D30001C0FF7F83C7FE7E7070C0E0707E7E77E75
:102D40003C0E1E1E2E2E4E4E8EFFFF0E0E0E7F3F91
:102D500090180DE7FB9E070381F1FFE7C03E3F9C03
:102D6000FC0EE7FBDFC7E3F1DDEFE3E0FFFFC0E0D0
:102D7000E0607030381C0C0E0703803F1FEE3F8769
:102D8000E3CFC7FBCFE1F87F3DFE3F003E3FBDDC18
:102D90007E3F1FDEFF3B81F9CFE3C0FC0007E0FC74
:102DA0000007E5E00083C7DF0C0780F81F0180FF04
:102DB000FFC0000FFFFC00703F03E0387DF1E080B2
:102DC000003E3FB8FC70381C1C1C1C0E000381C068
:102DD00003F00FFC1E0E380270E96319C219C61108
:102DE000C633C63263FE73DC3C001FF807F00700F1
:102DF000F00F80F81D819C19C38C3FE7FE706607B9
:102E0000E070FF9FFB83F07E0FFF3FF706E0FC1FA3
:102E100083FFEFF81F83FE78E707E00E00E00E0067
:102E2000E0070778F3FE1F80FF8FFCE0EE0EE07EE8
:102E300007E07E07E07E0EE0EFFCFF80FFFFF81C5E
:102E40000E07FBFDC0E070381FFFF8FFFFF81C0EF7
:102E500007FBFDC0E070381C0E000F87F9E3B83E99
:102E600001C038FF1FE06E0DE39FD0F2E0FC1F832E
:102E7000F07E0FFFFFFF07E0FC1F83F07E0EFFFFD9
:102E8000FFFFFE0707070707070707E7E7E77E3C9F
:102E9000E0EE1CE38E70EE0FC0FE0F70E70E38E11F
:102EA000CE0EE0E0E0E0E0E0E0E0E0E0E0E0E0FFE7
:102EB000FFF87FE1FF87FE1FEC7FB37ECDFB37EC91
:102EC000DF9E7E79F9E7E79CE0FE1FC3FC7FCFD948
:102ED000FBBF37E7FC7F87F0FE0E0F81FF1E3CE053
:102EE000EE03F01F80FC07E03B839E3C7FC0F800B0
:102EF000FF9FFB87F07E0FC3FFF7FCE01C03807091
:102F00000E000F81FF1E3CE0EE03F01F80FC07E186
:102F1000BB8F9E3C7FE0FB8008FF8FFCE0EE0EE065
:102F2000EE0EFFCFFCE0EE0EE0EE0EE0F03F0FFB0A
:102F3000C7F07E01FC1FF03F00FC1DC7BFE1F8FF9A
:102F4000FFC70381C0E070381C0E070381C0E0FC9E
:102F50001F83F07E0FC1F83F07E0FC1FC7BFE1F001
:102F600060670E70E30C30C39C1981981F80F00FCE
:102F700000F0060061C3B8E19C70CE3CE336719B63
:102F800030ED98367C1B3C0F1E078F01C380E1801B
:102F900070E78E39C1F81F80F00700F01F819C395F
:102FA000C70E70E0E0FC39C718C3B83607C0700E12
:102FB00001C0380700E0FFFFC0E0E0F070707078FB
:102FC00038381FFFF8FFEEEEEEEEEEEEEFF0861073
:102FD00086108430843080FF7777777777777FF03B
:102FE000181C3C3E366663C3FFC0CC3F1FEE380E54
:102FF0003F9EEE3B9EFF9EE0E0380E03BCFFBCEE22
:103000001F87E1F87F3BFEEF001F3FDC7C0E0703CC
:1030100080E37F8F000381C0E777FBBF8FC7E3F1B9
:10302000FDEFF3B83E3F9CDC3FFFFF81C37F8F0085
:103030003BDDFFB9CE739CE7003BBFDDFC7E3F1F4D
:103040008FEF7F9DC0FC77F1F0E070381DEFFF9FA0
:103050008FC7E3F1F8FC7E38FC7FFFFFFE77077730
:10306000777777777FE0E070381C7E7773F1F8FE32
:103070007739DC6E38FFFFFFFFFEEF7BFFFE39F88C
:10308000E7E39F8E7E39F8E7E39F8E70EF7FF8FCD1
:103090007E3F1F8FC7E3F1C01E1FE73B87E1F87E2D
:1030A0001DCE7F8780EF3FEF3B87E1F87E1FCEFF8D
:1030B000BBCE0380E038003BBFFDFC7E3F1F8FEF9F
:1030C0007F9DC0E070381CEFFF38E38E38E3803E10
:1030D0003FB8FC0FC3FC3FC7FF1F0073BFF739CEDB
:1030E000739E70E3F1F8FC7E3F1F8FC7FFBDC0E108
:1030F000986739CC330DC3E0781E0700E31D9E6648
:103100007999E677B8D2C3CF0F3C3CF07380739CBB
:10311000E3F0781E0781E0FC739CE0E1D86739CECC
:10312000330EC3E0781E0300C070380E00FEFE0EA2
:103130001C383870E0FFFF3766666EE666666730FB
:10314000FFFF80CE6666677666666EC0718E000091
:103150000000050001000000030D0602F400050058
:1031600007050901F4000A000A0C0A00F50019001D
:10317000090F0A01F3002A00100D1000F4004400AA
:103180000C0D0D01F400580003050501F4005A0070
:1031900006110601F400670006110600F400740031
:1031A00005060701F400780007080B02F9007F000C
:1031B00003050401FF00810005020600FB008300F7
:1031C00003020401FF008400050D0500F4008D00DA
:1031D000090D0A01F4009C00050D0A02F400A50087
:1031E000090D0A01F400B400080D0A01F400C10041
:1031F000080D0A02F400CE00090D0A01F400DD00FA
:10320000090D0A01F400EC00090D0A00F400FB00AE
:103210000A0D0A00F4000C01090D0A01F4001B015B
:1032200003090401F8001F01030C0401F800240144
:1032300009090B01F8002F0109060B01FA003601FC
:1032400009090B01F8004101090D0B01F4005001BF
:10325000100F1200F4006E010C0D0D00F40082013D
:103260000B0D0D01F40094010C0D0D01F400A801EB
:103270000C0D0D01F400BC01090D0C01F400CB0193
:10328000090D0B01F400DA010B0D0E01F400EC0145
:103290000B0D0D01F400FE01030D0601F400030205
:1032A000080D0A01F40010020C0D0D01F4002402B7
:1032B000080D0B01F40031020E0D1001F40048025C
:1032C0000B0D0E01F4005A020D0D0E01F4007002F8
:1032D0000B0D0C01F40082020D0E0E01F400990298
:1032E0000C0D0D01F400AD020B0D0C01F400BF023A
:1032F000090D0C02F400CE020B0D0D01F400E002EA
:103300000C0D0C00F400F402110D1100F400100378
:103310000C0D0C00F40024030B0D0C01F40036031B
:10332000090D0B01F400450304110601F4004E03DE
:10333000050D0500F400570304110600F4006003B6
:1033400008080B01F40068030A010A0004006A037C
:1033500003020500F4006B030A0A0A01F700780370
:103360000A0D0B01F4008903090A0A01F70095030D
:10337000090D0B01F400A403090A0A01F700B003C8
:10338000050D0601F400B903090E0B01F700C9038E
:10339000090D0B01F400D803030D0501F400DD0352
:1033A00004110500F400E603090D0A01F400F50319
:1033B000030D0501F400FA030E0A1001F7000C04D6
:1033C000090A0B01F70018040A0A0B01F70025048B
:1033D0000A0E0B01F7003704090E0B01F700470432
:1033E000060A0701F7004F04090A0A01F7005B0407
:1033F000050C0601F5006304090A0B01F7006F04D0
:103400000A0A0A00F7007C040E0A0E00F7008E0478
:103410000A0A0A00F7009B040A0E0A00F700AD042E
:10342000080A0901F700B70404110701F400C004F9
:1034300001110502F400C30404110702F400CC04D6
:1034400008020900FC00000000000000000000006D
:10345000000000000000000000000000000000006C
:10346000000000000000000000000000000000005C
:10347000000000000000000000000000000000004C
:10348000000000000000000000000000000000003C
:1038700000000000000000000000FF000000000049
:103880000000000000000000000000000000000038
:103890000000000000000000000000000000000028
:1038A0000000000000000000000000000000000018
:1038B000000000000000000000000000FF00000009
:1038C00000000000000000000000000000000000F8
:1038D00000000000000000000000000000000000E8
:1038E00000000000000000000000FF00FF00FF00DB
:1038F000FF00FF00FF00FF00FF00FF000000FF00CF
:103900000000FF00FF00FF00FF00FF00FF00FF00BE
:10391000FF00FF00FF00FF00FF00FF00FF00FF00AF
:10392000FF00FF00FF00FF00FF00FF00FF0000009E
:103930000000000000000000000000000000000087
:10394000FF00000000000000000000000000000078
:103950000000000000000000000000000000000067
:10396000000000000000000000000000FF00FF0059
:1039700000000000000000000000FF00FF00000049
:103980000000FF0000000000FF00FF00000000003A
:103990000000000000000000000000000000000027
:1039A0000000000000000000000000000000FF0018
:1039B000FF0000000000000000000000FF00FF000A
:1039C000FF000000FF000000FF00FF00FF000000FC
:1039D00000000000000000000000000000000000E7
:1039E00000000000000000000000000000000000D7
:1039F000FF00FF00000000000000000000000000C9
:103A0000FF00FF00FF00FF00FF00FF00FF000000BD
:103A100000000000000000000000000000000000A6
:103A20000000000000000000000000000000000096
:103A30000000FF00FF000000000000000000000088
:103A400000000000FF00FF00FF00FF00FF0000007B
:103A50000000000000000000000000000000000066
:103A60000000000000000000000000000000000056
:103A700000000000FF00FF00000000000000000048
:103A80000000000000000000FF00FF00FF00000039
:103A90000000000000000000000000000000000026
:103AA0000000000000000000000000000000000016
:103AB000000000000000FF00FF0000000000000008
:103AC00000000000000000000000000000000000F6
:103AD00000000000000000000000000000000000E6
:103AE00000000000000000000000000000000000D6
:103AF0000000000000000000FF00FF0000000000C8
:103B0000000000000000FF00FF00FF00FF00FF00BA
:103B1000FF00FF00FF00FF000000000000000000A9
:103B20000000000000000000000000000000000095
:103B300000000000000000000000FF00FF00000087
:103B40000000000000000000000000000000000075
:103B50000000000000000000000000000000000065
:103B60000000000000000000000000000000000055
:103B7000000000000000000000000000FF00FF0047
:103B8000FF00FF00FF00FF00FF00FF00FF00FF003D
:103B9000FF00FF00FF00FF00FF00FF00FF00FF002D
:103BA000FF00FF00FF00FF00FF00FF00FF00FF001D
:103BB000FF00FF00FF00FF00FF00FF00FF00FF000D
:103BC000D03B0008843C000820007E000700000075
:103BD000E8B457D5F5004E3E80A54A4A5A50C06A0F
:103BE000409580AA805D0060E080254856D47540ED
:103BF000C54EC51C9792F31C5354E5485554559433
:103C0000A04664E38098C50456C657DAD75C72466E
:103C1000D6DCF3CEF34872D4B7DAF824D4BB5A9288
:103C20004E8EEB58809DB99056D4D74856D440D785
:103C30005A711CE924B6D4B6A48C6B5500B55AB59C
:103C400024E54EEAC09112D5C054F090C7F0935EBF
:103C5000718025DE5E306E80779C935AB845609205
:103C6000EAAA40D56AD6805500D7407590E871E041
:103C7000BA40B580B5008D54AA80ACE0E5706A26E4
:103C8000FCC8AC5A00000000020001000000010561
:103C90000200FC00010003020400FC000200050514
:103CA0000600FC00060003060400FC0009000305F2
:103CB0000400FC000B0004050500FC000E000102DE
:103CC0000200FC000F0002050300FC0011000205C9
:103CD0000300FC00130003030400FD0015000303B0
:103CE0000400FD0017000202030000001800030199
:103CF0000400FE0019000101020000001A00030583
:103D00000400FC001C0003050400FC001E0002056A
:103D10000300FC00200003050400FC002200030552
:103D20000400FC00240003050400FC002600030539
:103D30000400FC00280003050400FC002A00030521
:103D40000400FC002C0003050400FC002E00030509
:103D50000400FC00300001030200FD0031000204F9
:103D60000300FD00320002030300FD0033000303E3
:103D70000400FD00350002030300FD0036000305CA
:103D80000400FC00380003050400FC003A000305B1
:103D90000400FC003C0003050400FC003E00030599
:103DA0000400FC00400003050400FC004200030581
:103DB0000400FC00440003050400FC004600030569
:103DC0000400FC00480003050400FC004A00010553
:103DD0000200FC004B0003050400FC004D0003053D
:103DE0000400FC004F0003050400FC005100050521
:103DF0000600FC00550004050500FC005800030502
:103E00000400FC005A0003050400FC005C000306EB
:103E10000400FC005F0003050400FC0061000305D2
:103E20000400FC00630003050400FC0065000305BA
:103E30000400FC00670003050400FC0069000505A0
:103E40000600FC006D0003050400FC006F00030584
:103E50000400FC00710003050400FC00730002056F
:103E60000300FC00750003050400FC007700020558
:103E70000300FC00790003020400FC007A00040146
:103E8000040001007B0002020300FC007C0003042C
:103E90000400FD007E0003050400FC008000030315
:103EA0000400FE00820003050400FC0084000304FB
:103EB0000400FD00860002050300FC0088000305E5
:103EC0000400FD008A0003050400FC008C000105CD
:103ED0000200FC008D0002060300FC008F000305B9
:103EE0000400FC00910002050300FC0093000503A0
:103EF0000600FE00950003030400FE009700030384
:103F00000400FE00990003040400FE009B0003046B
:103F10000400FE009D0002030300FE009E00030457
:103F20000400FD00A00002050300FC00A200030342
:103F30000400FE00A40003030400FE00A600050325
:103F40000600FE00A80003030400FE00AA0003040C
:103F50000400FE00AC0003040400FD00AE000305F5
:103F60000400FC00B00001060200FC00B1000305E3
:103F70000400FC00B30004020500FD000000000086
:103F80000000FF00FF00FF00FF00FF00FF00FF0038
:103F9000FF00FF00FF000000000000000000000024
:103FA0000000000000000000000000000000000011
:103FB0000000000000000000000000000000000001
:103FC0000000000000000000FF00000000000000F2
:103FD00000000000000000000000FF0000000000E2
:103FE00000000000000000000000000000000000D1
:103FF00000000000000000000000000000000000C1
:104000000000000000000000000000000000FF00B1
:1040100000000000000000000000000000000000A0
:10402000FF00000000000000000000000000000091
:104030000000000000000000000000000000000080
:104040000000000000000000000000000000000070
:1040500000000000FF000000000000000000000061
:10406000000000000000FF00000000000000000051
:104070000000000000000000000000000000000040
:104080000000000000000000000000000000000030
:1040900000000000000000000000FF000000000021
:1040A000000000000000000000000000FF00000011
:1040B0000000000000000000000000000000000000
:1040C00000000000000000000000000000000000F0
:1040D00000000000000000000000000000000000E0
:1040E000FF0000000000000000000000FF00FF00D3
:1040F000FF00FF00FF00FF000000000000000000C4
:10410000000000000000FF000000000000000000B0
:104110000000000000000000FF00000000000000A0
:10412000000000000000FF00FF00FF00FF00FF0094
:10413000FF00FF000000000000000000FF00000082
:10414000000000000000000000000000FF00000070
:10415000000000000000000000000000FF00FF0061
:10416000FF00000000000000FF00FF00FF00FF0054
:104170000000000000000000FF0000000000000040
:104180000000FF0000000000000000000000000030
:104190000000FF0000000000000000000000000020
:1041A0000000FF00FF00FF00000000000000FF0013
:1041B0000000000000000000000000000000FF0000
:1041C0000000000000000000FF00FF0000000000F1
:1041D0000000000000000000FF00000000000000E0
:1041E000000000000000FF00FF00FF00FF00FF00D4
:1041F00000000000FF0000000000FF00FF00FF00C3
:10420000FF00FF00FF000000000000000000FF00B2
:104210000000000000000000000000000000FF009F
:10422000000000000000000000000000FF00FF0090
:10423000FF00FF00FF000000FF00FF00FF00FF0085
:10424000FF000000000000000000FF000000000070
:1042500000000000FF00000000000000000000005F
:1042600000000000FF00000000000000000000004F
:10427000FF00FF00FF00FF00FF00FF00FF00000045
:10428000FF0000000000000000000000000000002F
:10429000FF000000000000000000FF00FF00000021
:1042A00000000000000000000000FF00000000000F
:1042B000000000000000FF00FF00FF00FF00FF0003
:1042C000FF00FF000000FF0000000000FF00FF00F3
:1042D000FF00FF00FF00FF000000000000000000E2
:1042E000FF000000000000000000000000000000CF
:1042F000FF000000000000000000000000000000BF
:104300000000FF00000000000000FF00FF00FF00B1
:10431000FF00FF000000000000000000FF000000A0
:10432000000000000000FF0000000000000000008E
:10433000000000000000FF0000000000000000007E
:104340000000000000000000FF000000000000006E
:104350000000FF000000000000000000000000005E
:104360000000FF000000000000000000FF00FF0050
:10437000000000000000000000000000FF0000003E
:104380000000000000000000000000000000FF002E
:104390000000000000000000FF0000000000FF001F
:1043A000FF00FF00FF00FF00FF0000000000000012
:1043B0000000FF00000000000000000000000000FE
:1043C0000000FF00000000000000000000000000EE
:1043D00000000000FF00000000000000FF00FF00E0
:1043E000FF00FF00FF000000000000000000FF00D1
:1043F0000000000000000000FF00000000000000BE
:104400000000000000000000FF00000000000000AD
:1044100000000000000000000000FF00000000009D
:1044200000000000FF00000000000000000000008D
:1044300000000000FF000000000000000000FF007E
:10444000FF00000000000000000000000000FF006E
:10445000000000000000000000000000000000005C
:10446000FF000000000000000000FF00000000004E
:10447000FF00FF00FF00FF00FF00FF000000000042
:1044800000000000FF00000000000000000000002D
:1044900000000000FF00000000000000000000001D
:1044A000000000000000FF00000000000000FF000E
:1044B000FF00FF00FF00FF00000000000000000000
:1044C000FF000000000000000000FF0000000000EE
:1044D00000000000FF00FF00FF00FF00FF00FF00E2
:1044E000FF0000000000000000000000FF000000CE
:1044F000000000000000FF000000000000000000BD
:10450000000000000000FF000000000000000000AC
:10451000FF00FF00000000000000FF00FF00FF00A0
:10452000FF00FF00FF00FF0000000000000000008F
:104530000000FF000000000000000000FF0000007D
:104540000000FF00FF00FF00FF00FF00FF00000071
:10455000000000000000FF0000000000000000005C
:104560000000FF00FF00FF00FF00FF000000000050
:104570000000000000000000FF000000000000003C
:10458000FF00FF00FF00FF00FF0000000000000030
:104590000000FF000000000000000000FF0000001D
:1045A0000000000000000000FF00FF00FF00FF000F
:1045B000FF00000000000000000000000000FF00FD
:1045C0000000000000000000FF00000000000000EC
:1045D0000000000000000000FF00000000000000DC
:1045E0000000FF00FF0000000000000000000000CD
:1045F000FF00FF00FF0000000000000000000000BE
:1046000000000000FF000000000000000000FF00AC
:1046100000000000FF00FF00FF00FF00FF00FF00A0
:104620000000000000000000FF000000000000008B
:10463000000000000000FF00FF00FF00000000007D
:1046400000000000000000000000FF00000000006B
:104650000000FF00FF00FF00FF00FF00000000005F
:1046600000000000FF000000000000000000FF004C
:104670000000000000000000000000000000FF003B
:10468000FF00FF00FF00FF00FF00FF00FF00FF0032
:10469000FF0000000000000000000000FF0000001C
:1046A00000000000000000000000FF00000000000B
:1046B00000000000FF0000000000000000000000FB
:1046C00000000000000000000000000000000000EA
:1046D00000000000000000000000000000000000DA
:1046E00000000000FF0000000000000000000000CB
:1046F000FF00000000000000FF00000000000000BC
:1047000000000000000000000000000000000000A9
:104710000000000000000000000000000000000099
:10472000000000000000000000000000FF00FF008B
:10473000FF00FF00FF00FF00FF00FF00FF00000080
:104740000000000000000000000000000000000069
:104750000000000000000000000000000000000059
:10476000000000000000000000004D4D00312F4D02
:10477000494E0000884700080000002008000000A3
:104780006C010008000000000024F400400000015B
:0400000508000131BD
:00000001FF
