:020000040800F2
:10000000A0060020CD010008091A0008B504000868
:10001000051A0008D5020008A92200080000000007
:100020000000000000000000000000004D2100085A
:10003000D902000800000000991E000851210008A4
:10004000E7010008E7010008E7010008E7010008F0
:10005000E7010008E7010008DD02000809040008C4
:1000600061040008E7010008E7010008E701000853
:10007000E7010008E7010008E7010008E7010008C0
:10008000E7010008E7010008E7010008E7010008B0
:10009000E7010008E7010008E7010008E7010008A0
:1000A000E7010008E5210008E7010008E701000872
:1000B0006D220008E7010008E7010008E7010008D9
:1000C000E7010008E7010008E7010008E701000870
:1000D000E7010008E7010008E7010008E701000860
:1000E00035030008E7010008E7010008E701000800
:1000F000E7010008E7010008E7010008E701000840
:10010000E7010008E7010008E7010008E70100082F
:10011000E7010008E7010008E7010008E70100081F
:10012000E7010008E7010008E7010008E70100080F
:1001300000F002F800F03AF80AA090E8000C8244BF
:100140008344AAF10107DA4501D100F02FF8AFF29C
:10015000090EBAE80F0013F0010F18BFFB1A43F0A5
:1001600001031847B8260000D8260000103A24BF23
:1001700078C878C1FAD8520724BF30C830C144BF0C
:1001800004680C607047000000230024002500264E
:10019000103A28BF78C1FBD8520728BF30C148BFEA
:1001A0000B6070471FB51FBD10B510BD00F058F8AB
:1001B0001146FFF7F7FF02F075FA00F076F803B486
:1001C000FFF7F2FF03BC00F07DF80000094880470C
:1001D00009480047FEE7FEE7FEE7FEE7FEE7FEE729
:1001E000FEE7FEE7FEE7FEE704480549054A064B41
:1001F00070470000E121000831010008A000002044
:10020000A0060020A0020020A00200204FF0000263
:1002100000B5134694469646203922BFA0E80C50FC
:10022000A0E80C50B1F12001BFF4F7AF090728BFD7
:10023000A0E80C5048BF0CC05DF804EB890028BF53
:1002400040F8042B08BF704748BF20F8022B11F07C
:10025000804F18BF00F8012B7047704770477047F8
:10026000754600F02BF8AE4605006946534620F06F
:100270000700854618B020B5FFF7B6FFBDE820405F
:100280004FF000064FF000074FF000084FF0000B52
:10029000AC46ACE8C009ACE8C009ACE8C009ACE8C1
:1002A000C00921F007018D46704710B50446AFF331
:1002B00000802046BDE81040FFF781BF004870472E
:1002C0000800002001491820ABBEFEE7260002000E
:1002D00070470000FFE7FEE77047000080B501208F
:1002E00000F040FA28B3FFE7012000F051F9642044
:1002F00001F0A4F840F60040C4F2010040F2011100
:1003000000F0EAFA50B9FFE740F29001C2F20001B2
:100310000120087048680130486006E040F2900112
:10032000C2F2000101204870FFE7012000F030F91F
:10033000FFE780BD80B54FF4806000F013FA70B322
:10034000FFE74FF4806000F023F9642001F076F8B5
:1003500040F27800C2F200000078C007D0B9FFE791
:1003600040F60040C4F201000421C0F2044100F054
:10037000B3FA38B9FFE740F27C01C2F20001012074
:10038000087006E040F27C01C2F2000101204870D2
:10039000FFE7FFE74FF4806000F0FAF8FFE74FF463
:1003A000006000F0DFF970B3FFE74FF4006000F089
:1003B000EFF8642001F042F840F27900C2F2000048
:1003C0000078C007D0B9FFE740F60040C4F2010052
:1003D0000821C0F2084100F07FFA38B9FFE740F287
:1003E0008801C2F200010120087006E040F2880195
:1003F000C2F2000101204870FFE7FFE74FF4006000
:1004000000F0C6F8FFE780BD80B5022000F0AAF931
:1004100028B3FFE7022000F0BBF8642001F00EF8DB
:1004200040F60040C4F2010040F2022100F054FA0C
:1004300050B9FFE740F26801C2F2000101200870E4
:1004400048680130486006E040F26801C2F20001ED
:1004500001204870FFE7022000F09AF8FFE780BD16
:1004600080B5042000F07EF910B3FFE7042000F00F
:100470008FF8642000F0E2FF40F60000C4F20100B3
:1004800040F2044100F028FA38B9FFE740F2700169
:10049000C2F200010120087006E040F27001C2F2D1
:1004A000000101204870FFE7042000F071F8FFE729
:1004B00080BD0000FFE7FEE782B00190019A41F2A3
:1004C0001C00C4F202000168114301600068019938
:1004D00008400090009802B07047000082B0019080
:1004E000019A41F21C00C4F202000168114301604C
:1004F0000068019908400090009802B07047000021
:1005000082B00190019A41F21800C4F20200016821
:10051000114301600068019908400090009802B002
:100520007047000082B00190019A41F21800C4F2B5
:1005300002000168114301600068019908400090C1
:10054000009802B07047000082B00190019A41F219
:100550001800C4F2020001681143016000680199AB
:1005600008400090009802B07047000082B00190EF
:10057000019A41F21800C4F20200016811430160BF
:100580000068019908400090009802B07047000090
:1005900081B00090009840F21441C4F2010108605B
:1005A00001B0704781B00090009A40F20441C4F25B
:1005B000010108689043086001B0704781B0009065
:1005C000009A40F20C41C4F20101086890430860AF
:1005D00001B0704781B00090009A40F20041C4F22F
:1005E000010108689043086001B0704781B0009035
:1005F000009A40F20841C4F2010108689043086083
:1006000001B0704781B00090009A40F20441C4F2FA
:10061000010108681043086001B0704781B0009084
:10062000009A40F20C41C4F20101086810430860CE
:1006300001B0704781B00090009A40F20041C4F2CE
:10064000010108681043086001B0704781B0009054
:10065000009A40F20841C4F20101086810430860A2
:1006600001B0704780B584B0039000208DF80B0076
:1006700003980079002867D0FFE7039800680028F6
:1006800061D0FFE7039840790146019140B1FFE74F
:10069000019801280DD0FFE70198022812D01AE036
:1006A00003980068FFF77EFF03980068FFF7C2FF1A
:1006B00015E003980068FFF78DFF03980068FFF7C7
:1006C000A1FF0CE003980068FFF7B4FF03980068EF
:1006D000FFF798FF03E001208DF80B00FFE7039878
:1006E000807978B3FFE7039880790146009101286B
:1006F00008D0FFE7009802280DD0FFE700980328F4
:1007000012D01AE003980068FFF758FF03980068BA
:10071000FFF79CFF15E003980068FFF767FF039859
:100720000068FFF77BFF0CE003980068FFF78EFF7F
:1007300003980068FFF772FF03E001208DF80B00BB
:10074000FFE7FFE7FFE708E003980068FFF742FFD5
:1007500003980068FFF726FFFFE79DF80B0004B041
:1007600080BD000081B0009040F21440C4F201004E
:10077000006800990840401AB0FA80F0400901B0C2
:100780007047000042F20000C4F20200006800F06E
:100790000700704781B0009042F20001C4F20201EC
:1007A000086820F00700009A1043086001B0704705
:1007B0000421C4F20101086840F60042C0F2007250
:1007C00010430860704700000421C4F2010108686A
:1007D000022262F31A6008607047000082B0019044
:1007E00000919DF800000821C4F2010151F8200099
:1007F000009A4FEA124C20EA1240019B9CFAACFC92
:10080000BCFA8CFC03FA0CF31843D2B241F8220074
:1008100002B0704780B586B0059004910498B0F896
:1008200001000390039890FAA0F0B0FA80F00290D3
:10083000FFE703980299C840002849D0FFE70398D2
:100840000299C840C00700283ED0FFE70298072859
:1008500006D8FFE7029940F201108840019009E0B4
:100860000298A0F108014FF00110884040F080602C
:100870000190FFE704984068082807D1FFE7059832
:100880000199049A126900F0B7F8FFE705980199F9
:10089000049A526800F066F804984068012805D070
:1008A000FFE70498406809280DD1FFE705980199F2
:1008B000049A926800F0B6F805980199049AD268F3
:1008C00000F06AF8FFE7FFE7029801300290B0E716
:1008D000002006B080BD000082B001900091019818
:1008E0008068BDF801100840401AB0FA80F0400955
:1008F00002B0704782B001900091BDF801000199EB
:10090000486102B07047000082B001900091BDF8CC
:1009100001000199486102B07047000082B0019067
:100920000091BDF801000199086102B07047000014
:1009300084B003900291019203989DF80B10084433
:10094000009000990868029A92FAA2F2B2FA82F232
:1009500093000F229A409043019A9A4010430860F6
:1009600004B0704784B003900291019203989DF8FF
:100970000B100844009000990868029A92FAA2F2BB
:10098000B2FA82F293000F229A409043019A9A4061
:100990001043086004B0704784B003900291019244
:1009A00003989DF80B100844009000990868029A7B
:1009B00092FAA2F2B2FA82F2930004229A40904391
:1009C000019A9A401043086004B0704783B00290C7
:1009D000019100920298C06801990A0A20EA112048
:1009E000009992FAA2F2B2FA82F291400843029977
:1009F000C86003B07047000083B00290019100927C
:100A00000298C06801990A0A20EA1120009992FA16
:100A1000A2F2B2FA82F2914008430299C86003B090
:100A20007047000084B003900291019203989DF8F2
:100A30000B100844009000990868029A92FAA2F2FA
:100A4000B2FA82F2930003229A409043019A9A40AC
:100A50001043086004B0704780B582B001900198DF
:100A60004FF47A7100F002F802B080BD82B00190BC
:100A7000009101980099B0FBF1F001384EF2140199
:100A8000CEF2000108604EF21801CEF20001002003
:100A900008604EF21001CEF200010520086002B09D
:100AA0007047000041F20400C4F20200006800F048
:100AB0000C00704741F20001C4F20201086840F4E2
:100AC000803008607047000041F20000C4F202006C
:100AD0000068C0F34040704782B00190009141F23D
:100AE0000401C4F20201086820F47C10019A02F4A7
:100AF0004032009B1A431043086002B07047000068
:100B000041F20001C4F20201086840F08070086000
:100B10007047000041F20000C4F202000068C0F318
:100B20004060704781B0009041F20401C4F20201BC
:100B3000086820F0F000009A1043086001B0704788
:100B400081B0009041F20401C4F20201086820F46F
:100B5000E060009A1043086001B0704781B00090D7
:100B600041F20401C4F20201086820F46050009AC6
:100B70001043086001B0704781B0009041F2040159
:100B8000C4F20201086820F00300009A10430860D4
:100B900001B0704781B000900099086840F04000B3
:100BA000086001B07047000080B584B003900291E6
:100BB00001208DF80700039800F044F8C0BBFFE760
:100BC000039800684FF6BF718843029A009211683B
:100BD000D2F804E0D2F808C0D36841EA0E0141EA35
:100BE0000C01194313691943536919439369194354
:100BF000D3691943126A11430843039908600398A3
:100C0000406820F004000299C98A084303994860AB
:100C10000298006AB0F5005F06D1FFE703980299D9
:100C2000496A00F017F8FFE700208DF80700FFE79A
:100C30000399C86920F40060C8619DF8070004B0FA
:100C400080BD000081B0009000980068C0F3801063
:100C500001B0704782B001900091BDF80000019989
:100C6000086102B07047000083B002908DF8071051
:100C700002980C3000909DF807000099087003B0AE
:100C80007047000081B00090009840F20001C2F26D
:100C90000001086001B0704782B001900091009A95
:100CA0000199086A1043086202B0704781B0009051
:100CB00000996FF00200086101B0704781B00090A8
:100CC00000996FF00100086101B0704781B0009099
:100CD00000996FF00100086101B0704781B0009089
:100CE0000099086820F08000086001B0704700009B
:100CF00081B000900099886820F08000886001B081
:100D00007047000081B000900099086840F08000B2
:100D1000086001B07047000081B000900099486CF5
:100D200040F40040486401B07047000081B000907A
:100D30000099086840F00100086001B070470000A9
:100D400081B000900099C86840F00200C86001B00E
:100D50007047000081B000900099C86840F0010021
:100D6000C86001B07047000081B0009000994869E8
:100D700040F00100486101B07047000081B0009070
:100D80000098406B01B070478AB0099008910792B3
:100D90000898012803D1FFE70020049030E008986C
:100DA000042803D1FFE70120039026E008981028CB
:100DB00003D1FFE7022002901CE00898402803D1ED
:100DC000FFE70320019012E00898B0F5807F03D17F
:100DD000FFE70420009007E008990620B1F5806F36
:100DE00008BF05200090FFE700980190FFE70198F9
:100DF0000290FFE702980390FFE703980490FFE753
:100E000004988DF81B0009989DF81B2042F60001FC
:100E1000C0F60001895C0844183005900598006808
:100E20009DF81B2042F60E01C0F600018A5C0321EA
:100E300091408843BDF81E10914008430599086011
:100E40000AB070478AB00990089107920898012863
:100E500003D1FFE70020049030E00898042803D174
:100E6000FFE70120039026E00898102803D1FFE750
:100E7000022002901CE00898402803D1FFE70320DD
:100E8000019012E00898B0F5807F03D1FFE70420BD
:100E9000009007E008990620B1F5806F08BF052093
:100EA0000090FFE700980190FFE701980290FFE7AC
:100EB00002980390FFE703980490FFE704988DF8E9
:100EC0001B0009989DF81B2042F60001C0F60001A6
:100ED000895C084418300590059800689DF81B202F
:100EE00042F60E01C0F600018A5CF0219140884371
:100EF000BDF81E1091400843059908600AB070477C
:100F000089B00890079106920798012803D1FFE75E
:100F10000020049030E00798042803D1FFE7012067
:100F2000039026E00798102803D1FFE702200290E3
:100F30001CE00798402803D1FFE70320019012E04E
:100F40000798B0F5807F03D1FFE70420009007E009
:100F500007990620B1F5806F08BF05200090FFE7D4
:100F600000980190FFE701980290FFE70298039034
:100F7000FFE703980490FFE704988DF8170008989E
:100F8000006A9DF8172042F60701C0F600018A5C4E
:100F90000A219140884306999140084308990862C4
:100FA00009B070478AB00990089107920898012803
:100FB00003D1FFE70020049030E00898042803D113
:100FC000FFE70120039026E00898102803D1FFE7EF
:100FD000022002901CE00898402803D1FFE703207C
:100FE000019012E00898B0F5807F03D1FFE704205C
:100FF000009007E008990620B1F5806F08BF052032
:101000000090FFE700980190FFE701980290FFE74A
:1010100002980390FFE703980490FFE704988DF887
:101020001B0009989DF81B2042F60001C0F6000144
:10103000895C084418300590059800689DF81B20CD
:1010400042F60E01C0F600018A5C0C2191408843F3
:10105000BDF81E1091400843059908600AB070471A
:1010600080B584B0039002910398006801900398C2
:1010700042F60041C4F20101884225D0FFE70398FF
:1010800043F20041C4F2010188421DD0FFE70398FA
:10109000B0F1804F18D0FFE7039840F20041C4F24E
:1010A0000001884210D0FFE7039840F60001C4F227
:1010B0000001884208D0FFE7039840F60041C4F2DF
:1010C0000001884208D1FFE7019820F070000299E2
:1010D000496808430190FFE7039842F60041C4F2D3
:1010E0000101884225D0FFE7039843F20041C4F292
:1010F000010188421DD0FFE70398B0F1804F18D05E
:10110000FFE7039840F20041C4F20001884210D08A
:10111000FFE7039840F60001C4F20001884208D0BE
:10112000FFE7039840F60041C4F20001884208D16D
:10113000FFE7019820F440700299C96808430190C4
:10114000FFE701980399086003980299896800F005
:1011500039F903980299098800F052F9039842F688
:101160000041C4F20101884208D0FFE7039843F22E
:101170000041C4F20101884206D1FFE703980299B9
:10118000096900F045F9FFE70398FFF7EDFD00203E
:1011900004B080BD81B0009000980069C0F34000A9
:1011A00001B0704789B0089007910798012803D1D2
:1011B000FFE70020049030E00798042803D1FFE700
:1011C0000120039026E00798102803D1FFE70220B2
:1011D00002901CE00798402803D1FFE7032001900C
:1011E00012E00798B0F5807F03D1FFE7042000905C
:1011F00007E007990620B1F5806F08BF0520009031
:10120000FFE700980190FFE701980290FFE702983E
:101210000390FFE703980490FFE704988DF81B0004
:1012200008989DF81B2042F60001C0F60001895C79
:101230000844183005909DF81B1042F61500C0F6C2
:101240000000415C042000FA01F20599086890430F
:10125000086009B07047000089B0089007910798AE
:10126000012803D1FFE70020049030E0079804280C
:1012700003D1FFE70120039026E00798102803D14F
:10128000FFE7022002901CE00798402803D1FFE707
:101290000320019012E00798B0F5807F03D1FFE7AB
:1012A0000420009007E007990620B1F5806F08BF81
:1012B00005200090FFE700980190FFE70198029059
:1012C000FFE702980390FFE703980490FFE7049874
:1012D0008DF81B0008989DF81B2042F60001C0F60F
:1012E0000001895C0844183005909DF81B1042F6F7
:1012F0001500C0F60000415C082000FA01F20599D3
:1013000008681043086009B07047000080B586B0D7
:1013100005900491039201208DF80B000498019030
:1013200001280ED0FFE70198102811D0FFE701989F
:10133000B0F5807F13D0FFE70198B0F5805F15D03E
:101340001BE00598039900F003FC8DF80B0015E0F5
:101350000598039900F068FC8DF80B000EE00598E5
:10136000039900F0D1FC8DF80B0007E00598039974
:1013700000F03AFD8DF80B0000E0FFE79DF80B0050
:1013800006B080BD82B00190009100980199486339
:1013900002B0704782B00190009100980199886373
:1013A00002B0704782B00190009100980199C86323
:1013B00002B0704782B001900091009801990864D2
:1013C00002B0704782B00190009100980199C86204
:1013D00002B0704782B0019000910198806844F299
:1013E00007018843009908430199886002B070475B
:1013F00082B00190009100980199486202B0704754
:1014000082B00190009100980199886202B0704703
:1014100082B00190009100980199086302B0704772
:1014200082B0019000910198406820F0700000990E
:1014300008430199486002B07047000082B00190F3
:101440004EF21000CEF20000006800900098019863
:10145000013020B1FFE7019801300190FFE7FFE77D
:10146000019870B1FFE74EF21000CEF20000006864
:10147000C003002804D5FFE7019801380190FFE779
:10148000EEE702B07047000010B59CB0002013904A
:101490001B901A9019901890179016901590202074
:1014A000FFF740F81020FFF73DF804200490FFF705
:1014B00039F808201290FFF735F841F20000C4F225
:1014C0000100019042F22C41C0F208410091FFF767
:1014D00011FA40F60000C4F20100099041F2100137
:1014E0000291FFF707FA009A0198139915920122C9
:1014F00008921692022205921792189115A903914B
:10150000FFF788F90399059BDDF820C0139ADDF8F1
:1015100008E00998CDF854E0CDF858C01793189218
:10152000FFF778F90399139A09980223C0F202434E
:101530001593092316930323069317931892FFF725
:1015400069F90399049A09980423C0F204430D939E
:1015500015931692FFF75EF913984FF07061FFF73D
:101560003DF908984FF47021FFF738F908984FF4C7
:101570007001FFF733F908980221C0F60071FFF7F8
:101580002DF908980221CFF20001FFF727F9049BFB
:101590000698089A13991A938DF86C208DF86D109F
:1015A0008DF86E001AA80790FFF75CF80699089B63
:1015B000139A07981A938DF86C308DF86D208DF87A
:1015C0006E10FFF74FF8DDF814C00699089B139AC8
:1015D0000798CDF868C08DF86C308DF86D208DF8C7
:1015E0006E10FFF73FF80699089B139A07984FF47F
:1015F000806CCDF868C08DF86C308DF86D208DF85A
:101600006E10FFF72FF80699089B139A07984FF46E
:10161000006CCDF868C08DF86C308DF86D208DF8B9
:101620006E10FFF71FF8089A099840F204410A91DA
:10163000FFF7CCF9089A40F60040C4F201000E9082
:1016400040F201110B91FFF7C1F9089A0E9840F290
:1016500002210C91FFF7BAF9089A0D990E98FFF73D
:10166000B5F9089A0E980821C0F208410F91FFF7CA
:10167000ADF909980A99129AFFF75AF90B990E9841
:10168000129AFFF755F90C990E98129AFFF750F934
:101690000D990E98129AFFF74BF90E980F99129A1E
:1016A000FFF746F900F03AFE139A114600F0E4F90C
:1016B00001460620109000F063FE109800F0F6FD41
:1016C00000F02CFE139A114600F0D6F901460720CF
:1016D000119000F055FE119800F0E8FD00F01EFE9C
:1016E000139A114600F0C8F90146129800F048FE1E
:1016F000129800F0DBFD00F011FE139A114600F085
:10170000BBF901462820149000F03AFE149800F02E
:10171000CDFD1CB010BD000080B596B00CA80490A3
:1017200028210391FEF772FD002005900B900A908E
:101730000990089007904FF48050FEF705FF0420B1
:101740000090FEF701FF05984AF2A00107910921D8
:101750000891032109910A9040F60000C4F20100AB
:10176000029007A90191FFF755F8009A0199029894
:1017700044F2400307930892FFF74CF8039A049948
:1017800005980C904FF482730D930E9002230F93E3
:10179000012310934FF4007311931292139014903D
:1017A0000A20159043F20000C4F201000690FFF7F2
:1017B000FBF90698FFF7EEF916B080BD80B588B04A
:1017C00000200190079006900590049003904FF43C
:1017D0000060FEF7CBFE00F0A9FD019A114600F073
:1017E00081F901461920009000F0ECFD009800F00E
:1017F00075FD019840F2CF21ADF80C1004904CF229
:10180000503105910690079042F60040C4F2010065
:10181000029003A9FFF724FC0298FFF773FA0199DD
:101820000298FFF7D7FD01990298FFF7F9FD02989A
:10183000FFF75EFA0298FFF741FA0298FFF78AFA7B
:101840000298FFF773FA08B080BD000080B590B031
:10185000002003900F900E900D900C900B900A902A
:10186000099008900790069001200490FEF736FE3C
:1018700004200190FEF77AFE019840F201110691D2
:10188000079040F60000C4F2010006A9FEF7C2FF6F
:1018900000F04CFD039A114600F024F901461C208B
:1018A000029000F08FFD029800F018FD03982421AB
:1018B000ADF82C100C904FF6FF710D910E904FF07B
:1018C000804005900BA9FFF7CBFB0598FFF706FAC0
:1018D00003990598FFF77EFD03990598FFF7A0FD92
:1018E0000598FFF705FA049905984FF48032FFF741
:1018F0004BFA039A04990598FFF754FB039A04994D
:101900000598FFF79FFA039A04990598FFF7F8FAEC
:1019100004990598FFF7C0F90598FFF711FA0598A3
:10192000FFF704FA10B080BD80B596B00020039098
:101930001590149013901290119010900F900E909B
:101940000D900C900B900A900990089007900690CB
:101950000590049002200290FEF7C0FD0398ADF8B8
:101960004400129044F620611391149040F200401C
:10197000C4F20000019011A9FFF772FB0198FFF774
:10198000ADF901980399FFF725FD01980121009118
:10199000FFF762FC00990198039A602309930A9269
:1019A0000B920C920D9209AAFFF7B0FC00990198D6
:1019B000FFF7F8FB01980399FFF732FD0198FFF755
:1019C00097F900990198FFF767F90198FFF7A4F9D3
:1019D0000198FFF7ABF91020FEF7C8FD02990398B4
:1019E00044F240020492092205920691079041F2C6
:1019F0000000C4F2010004A9FEF70CFFFEF7D8FEB8
:101A000016B080BDFFE7FEE7FFE7FEE788B007906E
:101A100006910592079800F0070004900498C0F121
:101A20000700052803D3FFE70420019004E0049891
:101A3000C0F107000190FFE701980390049804307B
:101A4000062803D8FFE70020009003E0049803383D
:101A50000090FFE70098029006980399012202FA8D
:101A600001F101390840029B984005999A40013ADA
:101A70001140084308B0704788B00790069105925E
:101A8000079800F0070004900498C0F107000528AB
:101A900003D3FFE70420019004E00498C0F107009D
:101AA0000190FFE70198039004980430062803D8BA
:101AB000FFE70020009003E0049803380090FFE760
:101AC0000098029006980399012202FA01F1013967
:101AD0000840029B984005999A40013A11400843FA
:101AE00008B0704788B0079006910592079800F0FB
:101AF000070004900498C0F10700052803D3FFE70E
:101B00000420019004E00498C0F107000190FFE771
:101B10000198039004980430062803D8FFE70020BA
:101B2000009003E0049803380090FFE700980290CB
:101B300006980399012202FA01F101390840029B3B
:101B4000984005999A40013A1140084308B07047FF
:101B500080B586B0059004910599086A20F00100CF
:101B600008620598006A02900598406801900598FF
:101B700080690390039820F003000390039820F0FD
:101B800070000499096808430390029820F002004D
:101B90000499096908430290029820F00100049911
:101BA000496808430290059842F60041C4F20101D9
:101BB000884208D0FFE7059843F20041C4F20101D2
:101BC000884220D1FFE7029820F008000499496973
:101BD00040EA81000290029820F00400049989688C
:101BE00040EA81000290019820F48070049989698C
:101BF00008430190019820F400700499C96940EAF3
:101C000041000190FFE70198059948600398059904
:101C1000886105980499C968FFF7B4FB0298059993
:101C20000862002006B080BD80B586B005900491A2
:101C30000599086A20F0100008620598006A029071
:101C4000059840680190059880690390039820F4F6
:101C500040700390039820F4E0400499096840EA3A
:101C600001200390029820F020000499096940EABD
:101C700001100290029820F010000499496840EA8F
:101C800001100290059842F60041C4F20101884219
:101C900008D0FFE7059843F20041C4F201018842F1
:101CA00021D1FFE7029820F080000499496940EAB9
:101CB00081100290029820F040000499896840EA5F
:101CC00081100290019820F480600499896940EAAB
:101CD00081000190019820F400600499C96940EAEC
:101CE000C1000190FFE701980599486003980599A4
:101CF000886105980499C968FFF74CFB029805991B
:101D00000862002006B080BD80B586B005900491C1
:101D10000599086A20F4807008620598006A0290AC
:101D20000598406801900598C0690390039820F0D9
:101D300003000390039820F0700004990968084399
:101D40000390029820F400700499096940EA012088
:101D50000290029820F480700499496840EA0120BA
:101D60000290059842F60041C4F20101884208D071
:101D7000FFE7059843F20041C4F20101884221D1F6
:101D8000FFE7029820F400600499496940EA812045
:101D90000290029820F480600499896840EA8120CA
:101DA0000290019820F480500499896940EA01105A
:101DB0000190019820F400500499C96940EA41104B
:101DC0000190FFE701980599486003980599C8615B
:101DD00005980499C968FFF7E5FA02980599086221
:101DE000002006B080BD000080B586B0059004914B
:101DF0000599086A20F4805008620598006A0290EC
:101E00000598406801900598C0690390039820F4F4
:101E100040700390039820F4E0400499096840EA78
:101E200001200390029820F400500499096940EAC7
:101E300001300290029820F480500499496840EAE9
:101E400001300290059842F60041C4F20101884237
:101E500008D0FFE7059843F20041C4F2010188422F
:101E600009D1FFE7019820F480400499896940EA8C
:101E700081100190FFE70198059948600398059942
:101E8000C86105980499C968FFF794FA0298059902
:101E90000862002006B080BD7047000080B582B0A7
:101EA0008DF8070000F018F900F02AF99DF80700F6
:101EB00000F0FAF800F006F902B080BD80B582B0FB
:101EC0008DF8070000F008F900F010F99DF8070000
:101ED00000F0EAF800F0F6F802B080BD80B586B0F8
:101EE00000F022F90120029000F028F900F012F928
:101EF0003220059000F022F9FD200490FFF7CEFF7C
:101F00001220FFF7DBFFAE20FFF7C8FFB320FFF77B
:101F1000C5FF9120FFF7D2FFCA20FFF7BFFF3F2088
:101F2000FFF7CCFFA220FFF7B9FF00200190FFF7D9
:101F3000C5FFA120FFF7B2FF0198FFF7BFFFA02068
:101F40000390FFF7ABFF1420FFF7B8FF1120FFF756
:101F5000B5FFB520FFF7A2FF0198FFF7AFFFAB2059
:101F6000FFF79CFF0298FFF7A9FFB420FFF796FF49
:101F70000398FFF7A3FF0498FFF7A0FFC120FFF726
:101F80008DFFFF20FFF79AFFC720FFF787FF0F2085
:101F9000FFF794FFB920FFF781FFB120FFF77EFF25
:101FA000E220FFF78BFFD120FFF778FF8220FFF7B9
:101FB00085FF2020FFF782FFBB20FFF76FFF1F2068
:101FC000FFF77CFFB620FFF769FF0820FFF776FFD9
:101FD000BE20FFF763FF0720FFF770FFA620FFF783
:101FE0005DFFA920FFF75AFF0A2000F0A7F8AF20F5
:101FF000FFF754FF059800F0A1F806B080BD00007F
:1020000080B582B0019000915C20FFF747FF00F09F
:1020100063F800F06BF80198009900F02BF800F0DD
:1020200051F802B080BD000080B582B08DF8070085
:102030008DF806108DF805208DF804301520FFF777
:102040002DFF9DF807001C30C0B2FFF737FF9DF849
:1020500006001C30C0B2FFF731FF7520FFF71EFFEE
:102060009DF80500FFF72AFF9DF80400FFF726FF03
:1020700002B080BD80B584B003900291FFE7019863
:10208000029988420ED2FFE703980199415C43F21E
:102090000000C4F20100FEF7E7FDFFE70198013000
:1020A0000190ECE704B080BD80B582B08DF80700E8
:1020B0009DF8071043F20000C4F20100FEF7D4FDC2
:1020C00002B080BD80B540F60000C4F2010041F2CC
:1020D0001001FEF723FC80BD80B540F60000C4F27D
:1020E000010041F21001FEF70FFC80BD80B541F206
:1020F0000000C4F2010042F22001FEF70FFC80BD97
:1021000080B541F20000C4F2010042F22001FEF766
:10211000FBFB80BD80B541F20000C4F2010040F23B
:102120000441FEF7FBFB80BD80B541F20000C4F224
:10213000010040F20441FEF7E7FB80BD80B582B0AC
:1021400001900198FFF77AF902B080BD7047000056
:102150007047000080B582B00220FEF71BFBFFE74E
:10216000FEF710FB022801D0FFE7F9E7FEF7A2FC1B
:10217000FFE7FEF7A9FC012801D0FFE7F9E74FF4DC
:1021800080304FF4E011FEF7A7FCFEF7B9FCFFE743
:10219000FEF7C0FC012801D0FFE7F9E7002001901D
:1021A000FEF7C0FC4FF48060FEF7CAFC0198FEF712
:1021B000D5FC0220FEF7E0FCFFE7FEF773FC0828E1
:1021C00001D0FFE7F9E74AF20020C0F24A40009050
:1021D000FEF742FC0098FEF755FD02B080BD0000FE
:1021E0007047000080B540F29801C2F20001012062
:1021F000087040F29000C2F200004068A0B1FFE712
:1022000040F29000C2F20000416801314160406834
:10221000642808D1FFE740F29001C2F2000148684B
:1022200001384860FFE7FFE740F26800C2F20000B3
:102230004068A0B1FFE740F26800C2F200004168C8
:10224000013141604068642808D1FFE740F268012D
:10225000C2F20001486801384860FFE7FFE742F634
:102260000040C4F20100FEF731FD80BD80B582B0B0
:102270004FF08040FEF78EFF98B1FFE74FF08040AF
:102280000190FEF77BFD0146019840F28402C2F204
:1022900000021160FEF70AFD01980021FFF7A8F87F
:1022A000FFE702B080BD0000FFE7FEE781B08DF8D8
:1022B00003009DF9030000280ED4FFE79DF90310E9
:1022C00001F01F02012090404A094EF20011CEF2A7
:1022D000000141F82200FFE701B0704781B08DF89E
:1022E00003009DF9030000280ED4FFE79DF90310B9
:1022F00001F01F02012090404A094EF20011CEF277
:10230000000141F82200FFE701B070474EF60C5083
:10231000CEF200000068C0F3022070474EF60C5069
:10232000CEF200000068C0F3022070474EF60C5059
:10233000CEF200000068C0F30220704782B08DF832
:10234000070000919DF9070000280AD4FFE70098D4
:1023500000019DF907104EF20042CEF200028854AF
:102360000BE0009800019DF8071001F00F014EF6F8
:102370001452CEF200028854FFE702B0704700000A
:1023800082B08DF8070000919DF9070000280AD45B
:10239000FFE7009800019DF907104EF20042CEF2CF
:1023A000000288540BE0009800019DF8071001F02E
:1023B0000F014EF61452CEF200028854FFE702B02D
:1023C0007047000082B08DF8070000919DF907006A
:1023D00000280AD4FFE7009800019DF907104EF28B
:1023E0000042CEF2000288540BE0009800019DF8F4
:1023F000071001F00F014EF61452CEF2000288547D
:10240000FFE702B07047000083B00290029800F02E
:10241000070000904EF60C51CEF2000108680190C2
:1024200001984FF6FF02104001900198009A40EA8F
:1024300002200022C0F2FA52104301900198086075
:1024400003B0704780B584B084460698CDF80CC0C0
:10245000ADF80A10ADF80820ADF806308DF805008B
:10246000BDF80800BDF8061088421DDAFFE7BDF888
:102470000800ADF80200FFE7BDF80200BDF8061045
:10248000884210DCFFE70398BDF80210BDF80A206F
:102490009DF8053000F028F8FFE7BDF80200013094
:1024A000ADF80200E8E71CE0BDF80600ADF800005A
:1024B000FFE7BDF80000BDF80810884210DCFFE718
:1024C0000398BDF80010BDF80A209DF8053000F013
:1024D0000BF8FFE7BDF800000130ADF80000E8E7B9
:1024E000FFE704B080BD000083B00290ADF8061095
:1024F000ADF804208DF80330BDF8060040F2060167
:10250000C2F200010988013988420BDCFFE7BDF8FF
:10251000040040F20401C2F2000109880139884236
:1025200001DDFFE741E0BDF8040040F20601C2F220
:1025300000010988BDF8062000FB012000EBD071E6
:1025400021F00101401A012817D1FFE70299BDF8D7
:10255000040040F20602C2F200021288BDF8063002
:1025600000FB023000EBD0704210885C00F0F000FD
:102570009DF803301843885417E00299BDF8040011
:1025800040F20602C2F200021288BDF8063000FBDB
:10259000023000EBD0704210885C00F00F009DF814
:1025A000033040EA03108854FFE703B0704700008F
:1025B00080B584B084460698CDF80CC0ADF80A10FA
:1025C000ADF80820ADF806308DF80500BDF808001C
:1025D000BDF8061088421DDAFFE7BDF80800ADF827
:1025E0000200FFE7BDF80200BDF80610884210DCCB
:1025F000FFE70398BDF80A10BDF802209DF80530EA
:10260000FFF772FFFFE7BDF802000130ADF80200EE
:10261000E8E71CE0BDF80600ADF80000FFE7BDF8F4
:102620000000BDF80810884210DCFFE70398BDF8F1
:102630000A10BDF800209DF80530FFF755FFFFE7B1
:10264000BDF800000130ADF80000E8E7FFE704B096
:1026500080BD000083B002908DF807109DF8070040
:1026600040EA00108DF8060040F20400C2F20000BB
:10267000008840F20601C2F200010988484300EBDD
:10268000D07040100090FFE70098411E009138B1D3
:10269000FFE79DF8060002994A1C02920870F3E7D2
:1026A00003B0704780B5ADF5836D00200A90CDF87A
:1026B00014040120FDF724FF4FF08050FDF7FCFECD
:1026C0000320FFF7A1FEFFF721FE0A9A0F21FFF773
:1026D0009DF901464FF0FF30FFF730FEFEF774F82A
:1026E000FFF738FDFEF7D0FEFFF716F8FFF766F8A4
:1026F000FFF71AF9FFF7AAF8FFF7F0FBFFE74FF42F
:10270000807002904021039100F06CF80BA80790B4
:1027100000210891FFF79EFF4FF4FA600990FEF741
:102720008DFE07980A22059201231146FFF7DCFE71
:1027300007980F22019205231146FFF7D5FE07984F
:102740001422049209231146FFF7CEFE019B07983D
:1027500019221146FFF7C8FE0298039900F042F8CB
:102760000798089A114600F021F80998FEF766FECE
:10277000049A059907986B4619601F210691322328
:10278000FFF760FE0599069B0798089AEC46CCF87F
:1027900000101946FFF70CFF0798089A114600F041
:1027A00005F80998FEF74AFEA9E7000080B582B057
:1027B0000190ADF80210ADF800203F2100227F23E8
:1027C0001046FFF731FC0198BDF8001000EBC11076
:1027D000BDF8021008444FF40051FFF711FC02B09D
:1027E00080BD000081B0ADF80200ADF80010BDF86A
:1027F000000040F20401C2F20001088001B07047FD
:102800000000000004040400020406080A0C000092
:102810000800000008000008000000084028000828
:1028200000000020080000006C0100084828000893
:102830000800002098060000880100080000000041
:082840000024F4004000000137
:0400000508000131BD
:00000001FF
