:020000040800F2
:1000000028290020CD01000865490008AD2D000811
:10001000FD48000875030008515900080000000061
:100020000000000000000000000000001D5000085B
:10003000DD03000800000000F14B000875500008C7
:10004000E7010008E7010008E7010008E7010008F0
:10005000E7010008E7010008010B0008190B000880
:10006000310B0008E7010008490B0008E701000810
:100070007903000889030008E7010008E701000888
:10008000E7010008E701000871030008E701000824
:10009000E7010008E7010008E7010008610B00081C
:1000A000E701000811510008E7010008E701000816
:1000B000E70100080152000805520008E7010008A6
:1000C000E7010008E7010008E7010008654C0008A7
:1000D000E701000831590008E7010008415900080C
:1000E000E7010008E7010008E7010008E701000850
:1000F000E7010008E7010008E7010008E701000840
:10010000E7010008E7010008E7010008E70100082F
:10011000E7010008E7010008E7010008E70100081F
:10012000E7010008E7010008E7010008E70100080F
:1001300000F002F800F03AF80AA090E8000C8244BF
:100140008344AAF10107DA4501D100F02FF8AFF29C
:10015000090EBAE80F0013F0010F18BFFB1A43F0A5
:100160000103184724F1000044F10000103A24BFB5
:1001700078C878C1FAD8520724BF30C830C144BF0C
:1001800004680C607047000000230024002500264E
:10019000103A28BF78C1FBD8520728BF30C148BFEA
:1001A0000B6070471FB51FBD10B510BD00F0A6F85D
:1001B0001146FFF7F7FF06F041F800F0C4F803B46A
:1001C000FFF7F2FF03BC00F0CBF8000009488047BE
:1001D00009480047FEE7FEE7FEE7FEE7FEE7FEE729
:1001E000FEE7FEE7FEE7FEE704480549054A064B41
:1001F000704700000D51000831010008282300203D
:1002000028290020282500202825002040EA010375
:1002100010B59B070FD1042A0DD310C808C9121FAF
:100220009C42F8D020BA19BA884201D9012010BDE9
:100230004FF0FF3010BD1AB1D30703D0521C07E0B6
:10024000002010BD10F8013B11F8014B1B1B07D11A
:1002500010F8013B11F8014B1B1B01D1921EF1D18B
:10026000184610BD4FF000020429C0F0128010F0B3
:10027000030C00F01B80CCF1040CBCF1020F18BF82
:1002800000F8012BA8BF20F8022BA1EB0C0100F015
:100290000DB85FEAC17C24BF00F8012B00F8012BE8
:1002A00048BF00F8012B70474FF0000200B513461D
:1002B00094469646203922BFA0E80C50A0E80C5086
:1002C000B1F12001BFF4F7AF090728BFA0E80C5037
:1002D00048BF0CC05DF804EB890028BF40F8042B30
:1002E00008BF704748BF20F8022B11F0804F18BF9D
:1002F00000F8012B7047704770477047754600F053
:100300002BF8AE4605006946534620F007008546A7
:1003100018B020B5FFF768FFBDE820404FF0000699
:100320004FF000074FF000084FF0000BAC46ACE870
:10033000C009ACE8C009ACE8C009ACE8C00921F0CC
:1003400007018D46704710B50446AFF30080204684
:10035000BDE81040FFF733BF004870472800002079
:1003600001491820ABBEFEE72600020070470000DE
:1003700070470000FFE7FEE780B540F2C800C2F218
:10038000000000F0FFFD80BD7047000084B00390C6
:100390000291019200930398C16B026C012090407E
:1003A00048600098039909684860039840681028DD
:1003B00009D1FFE7019803990968886002980399B9
:1003C0000968C86008E00298039909688860019884
:1003D00003990968C860FFE704B0704770470000E0
:1003E00010B59AB08C4686461D981C99CDF864E0ED
:1003F000CDF860C017928DF85B308DF85A108DF8EB
:1004000059009DF85900012804D0FFE79DF85900D4
:1004100060B9FFE719986A460021516037211160E1
:100420003C210522C82305F09DFDFFE79DF85900FA
:1004300002280CD1FFE719986A4600215160372144
:1004400011603C212322C82305F08CFDFFE7199899
:100450006A461D2151602121116047F29E61C0F65C
:1004600000015522052305F01FFC49F61410C0F6C3
:10047000000006F087FC1898002106F0AAFE40B99B
:10048000FFE7189880F0004006F0F8FEADF856003F
:1004900005E0189806F0F2FEADF85600FFE7BDF84B
:1004A000560005F0DBFD1490149806F091FC0B212A
:1004B0004843C0F16C00ADF84E001898002106F0DA
:1004C00088FE68B9FFE71998BDF84E1008396B46E9
:1004D0000F221A608AB22D21322305F03BFCFFE780
:1004E00019981499BDF84E20EC460F230693CCF8CA
:1004F00000303223079305F079FD0699079B199880
:100500006A4611602E216D2205F024FC189808908F
:1005100006F0B4FE06F0EEFE0146089807F04AF831
:100520000021C4F2201106F079FF129012980021E8
:1005300006F04FFE38B9FFE7129880F0004006F051
:10054000B9FE119004E0129806F0B4FE1190FFE796
:10055000119805F083FD1090199810996B460F22A1
:100560001A607322322305F041FD9DF85B00C0073D
:1005700078B1FFE719986A461D2151602121116069
:100580004AF6F071C0F600019622052305F08CFBB7
:10059000FFE79DF85A00C00708B3FFE719986A46BD
:1005A0001D215160212111604AF67601C0F600013B
:1005B0009622052305F078FB49F22420C0F60000BE
:1005C00006F0E0FB19986A460F2111604FF26E01A8
:1005D000C0F600018F22322305F008FDFFE79DF8E9
:1005E0005B00C0439DF85A108843C007A0B1FFE7E5
:1005F0009DF8590078B9FFE719986A461D215160A6
:10060000212111604AF2FC01C0F600019622052367
:1006100005F04AFBFFE7FFE79DF85A00C0070028F6
:100620004CD1FFE7179806F029FEADF83E00BDF863
:100630003E0005F013FD0E90149806F0C9FB0B2147
:100640004843C0F1AD00ADF8360019980E99BDF8D9
:100650003620EC460F230493CCF800303223059368
:1006600005F0C4FC0499059B19986A4611602E2177
:10067000AE2205F06FFB1798039006F0FFFD06F021
:1006800039FE0146039806F095FF0021C4F22011BF
:1006900006F0C4FE0C900C9806F00CFE0B900B9824
:1006A00005F0DCFC049A059B0A9019980A99EC461F
:1006B000CCF80020B42205F099FCFFE748F2B450D2
:1006C000C0F6000006F05EFB4FF27900C0F60000B5
:1006D0000990199809996B460F221A607D223F23D1
:1006E00005F084FC1AB010BD80B58AB00990ADF851
:1006F000221009986A460021516037211160D921E2
:1007000003912322FF2305F02DFC039A09986B46E1
:100710001D2159602121196047F63861C0F600019A
:10072000052305F0C1FA49F61410C0F6000006F0E2
:1007300029FBBDF82200ADF82000BDF8200005F02F
:100740008DFC0790079806F043FB0B214843C0F14E
:10075000FA00ADF81A0009980799BDF81A20EC467E
:100760000F230493CCF80030322305F03FFC48F20D
:10077000B450C0F6000006F005FB049A4FF2730077
:10078000C0F600000590099805996B461A60E822AA
:100790003F2305F02BFC0AB080BD000080B58CB073
:1007A00084460E988DF82FC00A91ADF82620ADF83A
:1007B00024308DF82300BDF8240006F0B3FD079027
:1007C000079806F05BFDADF81A000A986B46002109
:1007D000596037221A600522462305F0C3FB9DF8B5
:1007E0002F00C00778B9FFE70A986A461D215160BB
:1007F0001221116048F60E61C0F60001192205238E
:1008000005F052FA0EE00A986A461D215160232134
:1008100011604EF68001C0F600011422052305F098
:1008200043FAFFE749F61410C0F6000006F0AAFAF2
:10083000BDF81A000590059805F010FC0490049886
:1008400006F0C6FA0B214843C0F13A00ADF80E009D
:100850009DF82300C00798B1FFE749F22420C0F6B5
:10086000000006F08FFA0A986A460F2111604FF2D5
:100870006E01C0F600010C22322305F0B7FB0BE03D
:100880000A980499BDF80E20EC460F23CCF80030EE
:10089000322305F0ABFBFFE748F2B450C0F600008E
:1008A00006F070FA4FF27E00C0F6000002900A983F
:1008B00002996B460F221A600E223F2305F096FB29
:1008C0000CB080BD80B584B005208DF80F000020ED
:1008D0008DF80600FFE79DF806009DF80F1088428E
:1008E0005CDAFFE79DF8061040F20800C2F2000053
:1008F00050F82100029002990868496802F07AFED7
:10090000B0FA80F040098DF807009DF8070000F06C
:1009100001000299097A01F0010188422DD1FFE717
:100920000299C8680130C8600298C0680A2823D3B9
:10093000FFE70299C8680138C8609DF8070000F019
:1009400001000299497A01F00101884213D0FFE7C2
:100950009DF80700C00730B1FFE702990120C87277
:100960000299487206E002990120887202990020DB
:100970004872FFE7FFE7FFE703E002990020C86045
:10098000FFE79DF80700029900F001000872FFE7F9
:100990009DF8060001308DF806009CE704B080BD8C
:1009A00070B540F2102EC2F2000E41F20000C4F207
:1009B0000100CEF8000041F21001CEF8041000242E
:1009C0008EF809408EF80A408EF80B40CEF80C40A5
:1009D00040F2302CC2F2000CCCF8000042F22005AC
:1009E000CCF804508CF809408CF80A408CF80B4085
:1009F000CCF80C4040F22021C2F2000140F6004346
:100A0000C4F201030B6040F201124A604C728C7216
:100A1000CC72CC6040F20022C2F20002136040F2BD
:100A20000223536054729472D472D46040F29C03D7
:100A3000C2F2000340F60006C4F201061E605D60CB
:100A40005C729C72DC72DC6040F26424C2F20004CE
:100A5000C4F808E0206040F2040EC0F2044EC4F86E
:100A600004E040F2402EC2F2000ECEF808C0CEF8EC
:100A7000000040F2080CC0F2084CCEF804C040F26E
:100A80004C2CC2F2000CCCF80830CCF8000010233B
:100A9000C0F21043CCF8043040F27023C2F20003DD
:100AA000996018602021C0F22041596040F258211D
:100AB000C2F200018A6008604020C0F240404860F5
:100AC00070BD000040F29401C2F2000100204860B5
:100AD0007047000080B540F20040C4F2000002F010
:100AE00049FF400840F29401C2F200014880B1F988
:100AF00002000A88801A48604888088080BD00008B
:100B000080B5012002F0DEFC20B1FFE7012002F0F9
:100B1000EFFBFFE780BD000080B5022002F0D2FCB1
:100B200020B1FFE7022002F0E3FBFFE780BD0000F9
:100B300080B5042002F0C6FC20B1FFE7042002F0DB
:100B4000D7FBFFE780BD000080B5102002F0BAFCA3
:100B500020B1FFE7102002F0CBFBFFE780BD0000D3
:100B600080B5202002F0AEFC20B1FFE7202002F08B
:100B7000BFFBFFE780BD000081B0EFF3108072B6CD
:100B80000090FFE7FEE7000080B582B0EFF3108031
:100B900072B60190FFE742F20C00C4F20200006856
:100BA000C00708B1FFE7F6E706F032F942F20C00A1
:100BB000C4F2020000688006002809D5FFE742F26F
:100BC0000C01C4F20201086840F020000860FFE751
:100BD00042F21001C4F20201086840F0020008600D
:100BE00042F21402C4F202024FF60040C0F60100C5
:100BF0001060086840F040000860FFE742F20C0017
:100C0000C4F2020000688006002801D4FFE7F5E77F
:100C100042F20C01C4F202012020086042F21001ED
:100C2000C4F20201086820F00200086005F0FEFA34
:100C300062B6012002B080BD80B540F2AC00C2F2C5
:100C400000000078C00718B9FFE705F08DFAFFE74C
:100C500040F2AC00C2F2000080BD000080B586B05A
:100C600040F2AC00C2F200004078C007002800F05B
:100C7000AE80FFE7FFF788FF20B9FFE701208DF87E
:100C80001300A8E0EFF3108072B60590FFE742F280
:100C90000C00C4F202000068C00708B1FFE7F6E7E5
:100CA00006F0B6F842F20C00C4F2020000688006BA
:100CB000002809D5FFE742F20C01C4F202010868DE
:100CC00040F020000860FFE742F21001C4F2020188
:100CD000086840F00100086040F2AC00C2F2000079
:100CE00004300390052002900020ADF80600FFE7D5
:100CF000BDF806000299B0EB410F53D2FFE703980D
:100D00000088BDF806204FF60041C0F6010121F829
:100D10001200039802300390FFE742F20C00C4F285
:100D200002000068800600281ED4FFE742F20C0093
:100D3000C4F2020000684007002814D5FFE705F060
:100D400075FA42F21001C4F20201086820F00100B5
:100D5000086042F20C01C4F2020104200860012084
:100D60008DF8130037E0D8E742F20C01C4F202011B
:100D700020200860BDF80600029A6FF0010101EB27
:100D80004201884207D1FFE740F2AC01C2F2000104
:100D900001204870FFE7FFE7BDF806000130ADF81D
:100DA0000600A5E742F21001C4F20201086820F033
:100DB0000100086005F03AFA40F2AC01C2F200010D
:100DC0000020487062B601208DF8130003E0002077
:100DD0008DF81300FFE79DF8130006B080BD0000FA
:100DE00083B0019000208DF80300019890F8210055
:100DF00002280DD0FFE7019904208863FFE70199DD
:100E0000002081F82000FFE701208DF80B0021E091
:100E100001980168086820F00E00086001980168D8
:100E2000086820F0010008600198C16B026C012085
:100E300090404860FFE70199012081F82100FFE719
:100E40000199002081F82000FFE79DF803008DF84C
:100E50000B00FFE79DF80B0003B0704780B588B02A
:100E6000079000208DF81B00079890F821000228B9
:100E700007D0FFE707990420886301208DF81B0045
:100E800076E007980168086820F00E00086007986F
:100E90000168086820F001000860079800680821D0
:100EA000C4F20201884203D1FFE70120059047E028
:100EB000079800681C21C4F20201884203D1FFE7B1
:100EC0001020049039E0079800683021C4F2020134
:100ED000884204D1FFE74FF4807003902AE007981E
:100EE00000684421C4F20201884204D1FFE74FF4B4
:100EF000805002901BE0079800685821C4F202015C
:100F0000884204D1FFE74FF4803001900CE007984D
:100F100001686C22C4F202024FF08070914208BF57
:100F20004FF480100190FFE701980290FFE70298CC
:100F30000390FFE703980490FFE704980590FFE70C
:100F400005980421C4F2020108600799012081F884
:100F50002100FFE70799002081F82000FFE70798AC
:100F6000406B20B1FFE70798416B8847FFE7FFE739
:100F70009DF81B0008B080BD81B000900098806B88
:100F800001B0704780B58EB00D900D98C06B0068B1
:100F90000C900D98006800680B900C980D99096CE6
:100FA000C8404007002875D5FFE79DF82C00400792
:100FB00000286FD5FFE70D980068006880060028BC
:100FC00007D4FFE70D980168086820F00400086066
:100FD000FFE70D9800680821C4F20201884203D19E
:100FE000FFE704200A9047E00D9800681C21C4F236
:100FF0000201884203D1FFE74020099039E00D98B3
:1010000000683021C4F20201884204D1FFE74FF4A6
:10101000806008902AE00D9800684421C4F2020123
:10102000884204D1FFE74FF4804007901BE00D9801
:1010300000685821C4F20201884204D1FFE74FF44E
:10104000802006900CE00D9801686C22C4F2020228
:101050004FF08060914208BF4FF480000690FFE798
:1010600006980790FFE707980890FFE7089809900F
:10107000FFE709980A90FFE70A980421C4F20201E9
:1010800008600D98C06A20B1FFE70D98C16A8847D3
:10109000FFE7B8E00C980D99096CC840800700285C
:1010A00040F18080FFE79DF82C008007002879D56B
:1010B000FFE70D9800680068800600280BD4FFE762
:1010C0000D980168086820F00A0008600D99012059
:1010D00081F82100FFE70D9800680821C4F20201A1
:1010E000884203D1FFE70220059047E00D98006891
:1010F0001C21C4F20201884203D1FFE720200490A2
:1011000039E00D9800683021C4F20201884204D110
:10111000FFE74FF4007003902AE00D980068442127
:10112000C4F20201884204D1FFE74FF4005002905C
:101130001BE00D9800685821C4F20201884204D1D6
:10114000FFE74FF4003001900CE00D9801686C222D
:10115000C4F202024FF00070914208BF4FF4001039
:101160000190FFE701980290FFE702980390FFE7E4
:1011700003980490FFE704980590FFE70598042181
:10118000C4F202010860FFE70D99002081F82000F9
:10119000FFE70D98806A20B1FFE70D98816A8847C4
:1011A000FFE72FE00C980D99096CC8400007002854
:1011B00027D5FFE79DF82C000007002821D5FFE781
:1011C0000D980168086820F00E0008600D98C26B49
:1011D000016C012000FA01F151600D9988630D99AD
:1011E00081F82100FFE70D99002081F82000FFE73A
:1011F0000D98006B20B1FFE70D98016B8847FFE762
:10120000FFE7FFE7FFE70EB080BD000083B001906D
:1012100000200090019820B9FFE701208DF80B0015
:1012200047E0019908684FF6F872CBF6FD7210445A
:101230004CF6CD42CCF6CC42A0FB02026FF003008C
:1012400000EA9200086401990020C4F20200C86319
:101250000199022081F8210001980068006800903F
:10126000009843F6F0718843009001994868D1F8DE
:1012700008C0CB680A6940EA0C00184310434A6969
:1012800010438A691043C9690143009808430090DC
:101290000098019909680860019900208863019A03
:1012A000012182F82110019981F820008DF80B00AE
:1012B000FFE79DF80B0003B07047000080B586B0D3
:1012C000049003910292019300208DF80300FFE740
:1012D000049890F82000012804D1FFE702208DF83F
:1012E00017004CE00499012081F82000FFE7FFE798
:1012F000049890F82100012832D1FFE704990220D8
:1013000081F8210004990020886304980168086826
:1013100020F00100086004980399029A019BFFF7EE
:1013200035F80498C06A38B1FFE704980168086886
:1013300040F00E0008600CE004980168086820F096
:101340000400086004980168086840F00A0008601A
:10135000FFE704980168086840F00100086009E0B0
:10136000FFE70499002081F82000FFE702208DF8B4
:101370000300FFE79DF803008DF81700FFE79DF8D5
:10138000170006B080BD000080B584B0039000F067
:10139000ADF90290039801900198013048B1FFE740
:1013A00040F22100C2F20000017801980844019047
:1013B000FFE7FFE700F09AF90299401A0199884285
:1013C00001D2FFE7F6E704B080BD000090B00F90B7
:1013D0000E9100200D900990FFE70E9800680D997E
:1013E000C840002800F07F81FFE70D990120884068
:1013F0000C900E9800680C9908400B900B980C9973
:10140000884240F06C81FFE70E9840680590002804
:1014100051D0FFE7059801283AD0FFE70598022848
:101420003FD0FFE7059803285FD0FFE70598112814
:1014300032D0FFE70598122838D0FFE70598002141
:10144000C1F21101884236D0FFE705980021C1F2B0
:10145000120188422FD0FFE705980021C1F2210137
:10146000884228D0FFE705980021C1F22201884276
:1014700021D0FFE705980021C1F2310188421AD03E
:10148000FFE705980021C1F23201884213D02FE016
:101490000E98C06809902CE00E98C068043009903E
:1014A00027E00E98C0680830099022E00E98C068C6
:1014B0000C3009901DE00E98806818B9FFE70420F1
:1014C000099011E00E988068012806D1FFE70820F6
:1014D00009900C980F99086105E0082009900C9874
:1014E0000F994861FFE7FFE703E00020099000E063
:1014F000FFE70B98FF2803D8FFE70F98049003E05D
:101500000F9804300490FFE7049808900B98FF2888
:1015100004D8FFE70D988000039006E00D996FF066
:101520001F0000EB81000390FFE7039807900898E5
:101530000068079A0F219140884309999140084318
:10154000089908600E98C079C006002840F1C6804E
:10155000FFE7FFE741F21800C4F20200016841F022
:1015600001010160006800F0010006900698FFE7A5
:101570000D9820F003000821C4F2010140580A90A0
:101580000D9800F0030081000F2000FA01F10A9885
:1015900088430A900F9840F60001C4F20101884286
:1015A00003D1FFE70020029026E00F9840F60041AB
:1015B000C4F20101884203D1FFE70120019018E045
:1015C0000F9841F20001C4F20101884203D1FFE704
:1015D000022000900AE00F9941F20042C4F2010299
:1015E0000420914208BF03200090FFE7009801907B
:1015F000FFE701980290FFE702980D9901F00301BF
:10160000890000FA01F10A9808430A900A980D9996
:1016100021F003010822C4F2010288500E9880795B
:10162000C006002809D5FFE70B9A40F20841C4F232
:10163000010108681043086008E00B9A40F2084175
:10164000C4F20101086890430860FFE70E988079B2
:101650008006002809D5FFE70B9A40F20C41C4F23E
:10166000010108681043086008E00B9A40F20C4141
:10167000C4F20101086890430860FFE70E98807982
:101680008007002809D5FFE70B9A40F20441C4F215
:10169000010108681043086008E00B9A40F2044119
:1016A000C4F20101086890430860FFE70E98807952
:1016B000C00748B1FFE70B9A40F20041C4F20101B4
:1016C00008681043086008E00B9A40F20041C4F239
:1016D0000101086890430860FFE7FFE7FFE70D9806
:1016E00001300D9079E610B07047000042F22030D2
:1016F000C2F200000068704740F22100C2F2000010
:10170000027842F22031C2F20001086810440860F9
:101710007047000080B542F20001C4F2020108687F
:1017200040F010000860032000F096F8012000F05F
:1017300005F800F03BF8002080BD000080B582B0C5
:10174000009040F20000C2F20000006840F2210167
:10175000C2F200010A784FF47A71B1FBF2F1B0FBEA
:10176000F1F000F057FE20B1FFE701208DF80700EF
:1017700018E000980F280DD8FFE700994FF0FF30D0
:10178000002200F04FF8009840F22401C2F200015C
:10179000086003E001208DF8070003E000208DF8C9
:1017A0000700FFE79DF8070002B080BD83B0FFE7A8
:1017B00041F21800C4F20200016841F00101016029
:1017C000006800F0010002900298FFE7FFE741F295
:1017D0001C00C4F20200016841F080510160006801
:1017E00000F0805001900198FFE7FFE70421C4F268
:1017F000010108680090009820F0E06000900098D7
:1018000040F00070009000980860FFE703B0704758
:1018100080B582B08DF807009DF9070004F012F939
:1018200002B080BD80B586B08DF817000491039298
:101830000020029004F046F902909DF917000190F3
:1018400002980499039A03F09DF90146019804F067
:10185000EBF906B080BD000080B582B00190019820
:1018600004F004FA02B080BD80B586B00490002078
:101870000390029004980078C007002800F0AC8024
:10188000FFE700208DF8070041F21C00C4F20200BF
:101890000068C000002813D4FFE7FFE741F21C00F6
:1018A000C4F20200016841F080510160006800F05C
:1018B000805000900098FFE701208DF80700FFE7B7
:1018C00047F20000C4F200000068C005002822D4DE
:1018D000FFE747F20001C4F20001086840F480709D
:1018E0000860FFF703FF0390FFE747F20000C4F230
:1018F00000000068C00500280CD4FFE7FFF7F6FEE3
:101900000399401A652804D3FFE703208DF81700D8
:101910008AE0EAE7FFE741F22000C4F20200006833
:1019200000F4407002900298E0B3FFE70298049937
:10193000496801F44071884234D0FFE741F2200148
:10194000C4F20201086820F44070029040F2404264
:10195000C4F242220120106000201060029808604A
:101960009DF80800C007E0B1FFE7FFF7BFFE039056
:10197000FFE741F22000C4F202000068800700285F
:101980000ED4FFE7FFF7B2FE0399401A41F2893106
:10199000884204D3FFE703208DF8170044E0E8E70E
:1019A000FFE7FFE741F22001C4F20201086820F4DA
:1019B0004070049A5268104308609DF8070001289F
:1019C00009D1FFE741F21C01C4F20201086820F0CE
:1019D00080500860FFE7FFE7049800788007002840
:1019E0000CD5FFE741F20401C4F20201086820F4BB
:1019F0004040049A926810430860FFE7049800781A
:101A0000C00600280CD5FFE741F20401C4F2020130
:101A1000086820F48000049AD26810430860FFE749
:101A200000208DF81700FFE79DF8170006B080BD75
:101A300080B584B002900191029820B9FFE701209F
:101A40008DF80F001BE1019842F20001C4F202017F
:101A5000096801F00701884216D9FFE742F2000049
:101A6000C4F20200016821F00701019A11430160EC
:101A7000006800F007000199884204D0FFE70120C8
:101A80008DF80F00FBE0FFE7029800788007002840
:101A90002AD5FFE7029800784007002809D5FFE71C
:101AA00041F20401C4F20201086840F4E0600860F9
:101AB000FFE7029800780007002809D5FFE741F208
:101AC0000401C4F20201086840F460500860FFE7B6
:101AD00041F20401C4F20201086820F0F000029A09
:101AE000926810430860FFE702980078C00700285A
:101AF00060D0FFE70298406801280ED1FFE741F26D
:101B00000000C4F2020000688003002804D4FFE74C
:101B100001208DF80F00B2E021E002984068022811
:101B20000ED1FFE741F20000C4F20200006880011C
:101B3000002804D4FFE701208DF80F009FE00DE09E
:101B400041F20000C4F2020000688007002804D4BB
:101B5000FFE701208DF80F0091E0FFE7FFE741F27A
:101B60000401C4F20201086820F00300029A5268DE
:101B700010430860FFF7BAFD0090FFE741F2040050
:101B8000C4F20200006800F00C0002994968B0EB52
:101B9000810F0ED0FFE7FFF7A9FD0099401A41F22F
:101BA0008931884204D3FFE703208DF80F0066E0F7
:101BB000E4E7FFE7019842F20001C4F2020109687C
:101BC00001F00701884216D2FFE742F20000C4F29A
:101BD0000200016821F00701019A114301600068C9
:101BE00000F007000199884204D0FFE701208DF83A
:101BF0000F0044E0FFE702980078400700280CD56A
:101C0000FFE741F20401C4F20201086820F4E06039
:101C1000029AD26810430860FFE702980078000734
:101C200000280DD5FFE741F20401C4F20201086863
:101C300020F46050029A126940EAC2000860FFE78F
:101C400000F04CF841F20401C4F202010968C9B283
:101C50000A0947F61861C0F60001895CC84040F2E5
:101C60000001C2F20001086040F22400C2F200004C
:101C70000068FFF763FD00208DF80F00FFE79DF877
:101C80000F0004B080BD000040F20000C2F200006E
:101C90000068704780B5FFF7F7FF41F20401C4F216
:101CA00002010968C1F3022247F62861C0F600016B
:101CB000895CC84080BD000080B5FFF7E5FF41F2B8
:101CC0000401C4F202010968C1F3C22247F6286187
:101CD000C0F60001895CC84080BD000086B00020CD
:101CE0000590049003900290019041F20400C4F228
:101CF000020000680590059800F00C000146009174
:101D000000283FD0FFE70098042804D0FFE70098A0
:101D1000082806D037E041F60030C0F2B700019045
:101D200037E00598C0F383414AF2EA00C0F60000AC
:101D3000405C02909DF81600C007C0B1FFE741F279
:101D40000400C4F202000068C0F340414AF2FA0005
:101D5000C0F60000405C0490029841F60031C0F2E9
:101D6000B70148430499B0FBF1F0039007E00298F3
:101D700040F60011C0F23D0148430390FFE703988D
:101D8000019006E0FFE741F20020C0F27A000190E6
:101D9000FFE7019806B0704780B586B004900498BC
:101DA00020B9FFE701208DF817002EE30498007892
:101DB000C007002800F0AE80FFE741F20400C4F243
:101DC0000200006800F00C00042813D0FFE741F285
:101DD0000400C4F20200006800F00C0008281BD1C7
:101DE000FFE741F20400C4F202000068C0030028CB
:101DF00012D5FFE741F20000C4F202000068800340
:101E0000002808D5FFE70498406820B9FFE70120C3
:101E10008DF81700F9E27CE0FFE704984068B0F520
:101E2000803F09D1FFE741F20001C4F202010868D6
:101E300040F48030086032E00498406868B9FFE7F9
:101E400041F20001C4F20201086820F48030086009
:101E5000086820F48020086020E004984068B0F50D
:101E6000A02F0DD1FFE741F20001C4F20201086882
:101E700040F480200860086840F4803008600CE07E
:101E800041F20001C4F20201086820F480300860C9
:101E9000086820F480200860FFE7FFE7FFE7FFE71E
:101EA00004984068D0B1FFE7FFF720FC0390FFE7FC
:101EB00041F20000C4F202000068800300280CD444
:101EC000FFE7FFF713FC0399401A652804D3FFE7E7
:101ED00003208DF8170098E2EAE719E0FFF706FC07
:101EE0000390FFE741F20000C4F2020000688003A3
:101EF00000280CD5FFE7FFF7F9FB0399401A652886
:101F000004D3FFE703208DF817007EE2EAE7FFE73E
:101F1000FFE7FFE7049800788007002840F18D80F4
:101F2000FFE741F20400C4F20200006810F00C0F59
:101F300013D0FFE741F20400C4F20200006800F091
:101F40000C00082829D1FFE741F20400C4F2020086
:101F50000068C003002820D4FFE741F20000C4F26B
:101F6000020000688007002809D5FFE7049800698F
:101F7000012804D0FFE701208DF8170045E241F267
:101F80000001C4F20201086820F0F800049A5269C6
:101F900040EAC2000860FFE74EE00498006958B3C9
:101FA000FFE70021C4F2422101200860FFF79EFBF9
:101FB0000390FFE741F20000C4F2020000688007CE
:101FC00000280CD4FFE7FFF791FB0399401A032880
:101FD00004D3FFE703208DF8170016E2EAE741F289
:101FE0000001C4F20201086820F0F800049A526966
:101FF00040EAC20008601EE00021C4F24221002035
:102000000860FFF773FB0390FFE741F20000C4F2A2
:1020100002000068800700280CD5FFE7FFF766FB89
:102020000399401A032804D3FFE703208DF8170013
:10203000EBE1EAE7FFE7FFE7FFE704980078000736
:10204000002848D5FFE70498806918B3FFE740F2FD
:102050008041C4F2422101200860FFF747FB039052
:10206000FFE741F22400C4F2020000688007002864
:102070000CD4FFE7FFF73AFB0399401A032804D377
:10208000FFE703208DF81700BFE1EAE7012002F027
:10209000B1FD1FE040F28041C4F2422100200860FF
:1020A000FFF724FB0390FFE741F22400C4F2020093
:1020B0000068800700280CD5FFE7FFF717FB03999E
:1020C000401A032804D3FFE703208DF817009CE192
:1020D000EAE7FFE7FFE7049800784007002840F1AF
:1020E000D880FFE700208DF8070041F21C00C4F201
:1020F00002000068C000002813D4FFE7FFE741F2A8
:102100001C00C4F20200016841F0805101600068C7
:1021100000F0805000900098FFE701208DF8070044
:10212000FFE747F20000C4F200000068C005002885
:1021300022D4FFE747F20001C4F20001086840F42E
:1021400080700860FFF7D2FA0390FFE747F20000C3
:10215000C4F200000068C00500280CD4FFE7FFF7B8
:10216000C5FA0399401A652804D3FFE703208DF8C8
:1021700017004AE1EAE7FFE7FFE70498C068012893
:1021800009D1FFE741F22001C4F20201086840F0E2
:102190000100086031E00498C06868B9FFE741F2C7
:1021A0002001C4F20201086820F0010008600868FC
:1021B00020F0040008601FE00498C06805280DD1D5
:1021C000FFE741F22001C4F20201086840F0040078
:1021D0000860086840F0010008600CE041F220014E
:1021E000C4F20201086820F001000860086820F0CD
:1021F00004000860FFE7FFE7FFE7FFE70498C06817
:10220000E0B1FFE7FFF772FA0390FFE741F2200029
:10221000C4F202000068800700280ED4FFE7FFF731
:1022200065FA0399401A41F28931884204D3FFE7E5
:1022300003208DF81700E8E0E8E71BE0FFF756FA07
:102240000390FFE741F22000C4F20200006880071B
:1022500000280ED5FFE7FFF749FA0399401A41F22B
:102260008931884204D3FFE703208DF81700CCE0C2
:10227000E8E7FFE79DF80700012809D1FFE741F2F1
:102280001C01C4F20201086820F080500860FFE7DA
:10229000FFE70498C069002800F0B380FFE741F22F
:1022A0000400C4F20200006800F00C00082800F0EE
:1022B0008280FFE70498C06902285CD1FFE76021B3
:1022C000C4F2422100200860FFF710FA0390FFE7F4
:1022D00041F20000C4F202000068800100280CD521
:1022E000FFE7FFF703FA0399401A032804D3FFE737
:1022F00003208DF8170088E0EAE70498006AB0F53B
:10230000803F0CD1FFE741F20401C4F202010868EA
:1023100020F40030049A926810430860FFE741F20D
:102320000401C4F20201086820F47410049B1A6AC4
:102330005B6A1A43104308606021C4F24221012005
:102340000860FFF7D3F90390FFE741F20000C4F201
:1023500002000068800100280CD4FFE7FFF7C6F9EF
:102360000399401A032804D3FFE703208DF81700D0
:102370004BE0EAE71EE06021C4F242210020086041
:10238000FFF7B4F90390FFE741F20000C4F2020046
:102390000068800100280CD5FFE7FFF7A7F9039933
:1023A000401A032804D3FFE703208DF817002CE020
:1023B000EAE7FFE724E00498C069012804D1FFE7B9
:1023C00001208DF8170020E041F20400C4F2020061
:1023D00000680290029800F480300499096A8842EB
:1023E00008D1FFE7029800F470100499496A884206
:1023F00004D0FFE701208DF8170006E0FFE7FFE7B4
:10240000FFE700208DF81700FFE79DF8170006B0E2
:1024100080BD000080B582B00190019802F000FEFE
:1024200002B080BD82B00190ADF8021002B07047DA
:1024300081B0009001B0704781B0009001B070474A
:1024400080B584B00290FFE7FFE70298006850E88B
:10245000030F20F0C0000190FFE701990298026885
:1024600042E803100028F0D1FFE7FFE70298006878
:1024700040690006002832D5FFE7FFE7FFE7029832
:10248000006850E8050F20F080000090FFE70099F9
:102490000298026842E805100028F0D1FFE7FFE744
:1024A0000298806BD0B1FFE70298816B00204863EF
:1024B0000298806BFEF794FC78B1FFE70298806B7E
:1024C000FEF75AFD202807D1FFE702991020486443
:1024D00003208DF80F000CE0FFE7FFE7FFE702990C
:1024E0000020C884029A202182F841108DF80F0044
:1024F000FFE79DF80F0004B080BD000081B00090A0
:1025000001B0704781B0009001B0704780B592B0C3
:102510001190119800680068109011980068C068C8
:102520000F901198006840690E9000200D900C905B
:10253000109800F00F000D900D9888B9FFE79DF8F6
:102540004000800600280AD5FFE79DF83C00800681
:10255000002804D5FFE7119803F08CF8E9E1FFE7C4
:102560000D98002800F0C280FFE79DF83800C007F2
:1025700038B9FFE7BDF83C0010F4907F00F0B6805A
:10258000FFE79DF84000C00758B1FFE79DF83D0008
:10259000C00730B1FFE71199486C40F00100486472
:1025A000FFE79DF84000400700280BD5FFE79DF8A6
:1025B0003800C00730B1FFE71199486C40F00200C5
:1025C0004864FFE79DF84000800700280BD5FFE72F
:1025D0009DF83800C00730B1FFE71199486C40F012
:1025E00004004864FFE79DF840000007002811D56B
:1025F000FFE79DF83C008006002805D4FFE79DF822
:102600003800C00730B1FFE71199486C40F008006E
:102610004864FFE71198406C002866D0FFE79DF8FA
:102620004000800600280AD5FFE79DF83C008006A0
:10263000002804D5FFE7119803F01CF8FFE7119874
:1026400000684069C0F380100C901198406C00073E
:10265000002804D4FFE70C9800283ED0FFE711982B
:1026600002F054FF119800684069400600282FD5F9
:10267000FFE7FFE7FFE71198006850E8050F20F03B
:1026800040000B90FFE70B991198026842E8051093
:102690000028F0D1FFE7FFE71198C06B98B1FFE782
:1026A0001198C16B45F2DD30C0F600004863119807
:1026B000C06BFEF7D3FB28B1FFE71198C06B416BED
:1026C0008847FFE703E01198816D8847FFE703E043
:1026D0001198816D8847FFE706E01198816D884762
:1026E000119900204864FFE7FFE722E11198006B91
:1026F000012840F0FE80FFE79DF84000C00600285A
:1027000040F1F780FFE79DF83C00C006002840F14B
:10271000F080FFE7FFE700200A901198006800684A
:102720000A901198006840680A900A98FFE711988B
:10273000006840694006002840F18180FFE7119859
:10274000C06B00684068ADF82600BDF82600002880
:1027500074D0FFE7BDF826001199898D88426DDAA3
:10276000FFE7BDF826001199C8851198C06B8069F4
:10277000202858D0FFE7FFE7FFE71198006850E8EE
:10278000030F20F480700890FFE708991198026801
:1027900042E803100028F0D1FFE7FFE7FFE7FFE77B
:1027A0001198006850E8050F20F001000790FFE73E
:1027B00007991198026842E805100028F0D1FFE758
:1027C000FFE7FFE7FFE71198006850E8050F20F0EA
:1027D00040000690FFE706991198026842E805104C
:1027E0000028F0D1FFE7FFE71199202081F842008F
:1027F000119900200863FFE7FFE71198006850E88F
:10280000030F20F010000590FFE70599119802686A
:1028100042E803100028F0D1FFE7FFE71198C06BF2
:10282000FEF7DEFAFFE71199022048631198C26EA5
:10283000818DC38DC91A89B29047FFE779E011995C
:10284000888DC98D401AADF812001198C08D0028EE
:102850004ED0FFE7BDF81200002849D0FFE7FFE7A0
:10286000FFE71198006850E8030F20F49070039080
:10287000FFE703991198026842E803100028F0D19D
:10288000FFE7FFE7FFE7FFE71198006850E8050F53
:1028900020F001000290FFE702991198026842E8D7
:1028A00005100028F0D1FFE7FFE71199202081F8FB
:1028B0004200119900200863FFE7FFE711980068C4
:1028C00050E8030F20F010000190FFE701991198E4
:1028D000026842E803100028F0D1FFE7FFE71199F2
:1028E000022048631198C26EBDF812109047FFE7AE
:1028F0001FE09DF84000000600280AD5FFE79DF87C
:102900003C000006002804D5FFE7119802F0C6FF3E
:102910000FE09DF84000400600280AD5FFE79DF82B
:102920003C004006002804D5FFE7119802F038FE6D
:10293000FFE712B080BD000080B582B00090009823
:1029400020B9FFE701208DF807004EE0009880696C
:1029500008B1FFE700E0FFE7009890F84100B0B948
:10296000FFE70099002081F84000009802F048FE3F
:102970000098006F38B9FFE7009942F6F510C0F6ED
:1029800000000867FFE70098016F8847FFE700999C
:10299000242081F8410000980168C86820F40050A4
:1029A000C860009802F01CFF00980168086920F4D4
:1029B0009040086100980168486920F02A00486149
:1029C00000980168C86840F40050C8600099002071
:1029D0004864009A202182F84110009A82F842103F
:1029E000009948638DF80700FFE79DF8070002B0E3
:1029F00080BD000080B594B013900020129011901B
:102A000010900F901398006843F60001C4F2010182
:102A1000884244D1FFE7FFE741F21800C4F2020008
:102A2000016841F480410160006800F480400E902C
:102A30000E98FFE7FFE741F21800C4F202000168B8
:102A400041F004010160006800F004000D900D9851
:102A5000FFE74FF400700F900220089010900320C1
:102A6000129040F60000C4F2010006900FA90791F1
:102A7000FEF7ACFC069807994FF480620F92002293
:102A8000099210921192FEF7A1FC0899099A25204B
:102A90000A90FEF7C7FE0A98FEF7BAFE70E0139898
:102AA000006844F60001C4F20001884267D1FFE7E4
:102AB000FFE741F21C00C4F20200016841F48021EA
:102AC0000160006800F480200C900C98FFE7FFE79D
:102AD00041F21800C4F20200016841F008010160EF
:102AE000006800F008000B900B98FFE74FF480603F
:102AF0000F90022010900320129040F60040C4F284
:102B0000010002900FA90391FEF760FC029803995F
:102B10004FF400620F920022049210921192FEF77D
:102B200055FC049940F2C800C2F2000005901C2236
:102B3000C4F2020202601022426081608022C26000
:102B4000016141618161C161FEF760FB18B1FFE77E
:102B5000FEF712F8FFE7FFE7139840F2C801C2F250
:102B60000001816313984862FFE72720019002214A
:102B70000022FEF757FE0198FEF74AFEFFE7FFE747
:102B800014B080BD87B005908DF81310039200201B
:102B90008DF80B00039848B9FFE70599486C40F0A1
:102BA0002000486401208DF81B0078E0059890F81B
:102BB0004100202842D1FFE79DF813000146019112
:102BC0000C2831D80199DFE801F0070B0F13171B10
:102BD0001F232F2F2F272B000398059988642CE0A3
:102BE00003980599C86428E003980599086524E0CE
:102BF00003980599486520E00398059988651CE0CD
:102C000003980599C86518E003980599086614E0CB
:102C100003980599486610E00398059908670CE049
:102C200003980599486708E00599486C40F0200032
:102C3000486401208DF80B00FFE72BE0059890F821
:102C40004100E8B9FFE79DF81300014600910B2809
:102C500004D0FFE700980C2804D007E003980599FA
:102C600008670CE003980599486708E00599486CE7
:102C700040F02000486401208DF80B00FFE708E0D9
:102C80000599486C40F02000486401208DF80B0045
:102C9000FFE7FFE79DF80B008DF81B00FFE79DF8AD
:102CA0001B0007B07047000081B0009001B0704772
:102CB00081B0009001B0704780B586B00490039158
:102CC000ADF80A20049890F8410020285DD1FFE774
:102CD000039820B1FFE7BDF80A0020B9FFE7012003
:102CE0008DF8170055E0039804990862BDF80A00B2
:102CF00004998884BDF80A000499C88404990020C6
:102D00004864049A212182F8411004998A6B45F2A3
:102D10007941C0F60001916204998A6B45F2F54150
:102D2000C0F60001D16204998A6B45F2FD31C0F60C
:102D3000000111630499896B486303A8019004980A
:102D40000268806B019909680432BDF80A30FEF709
:102D5000B5FA049801686FF040000860FFE7FFE7EC
:102D60000498006850E8050F40F080000090FFE7ED
:102D700000990498026842E805100028F0D1FFE7A6
:102D8000FFE700208DF8170003E002208DF8170000
:102D9000FFE79DF8170006B080BD000081B00090ED
:102DA00001B0704781B0009001B07047FFE7FEE7C7
:102DB00080B58CB06946312048608020086040F2C0
:102DC0002030C2F2000009904BF26A71C0F6000197
:102DD00040220892062302F067FF099800220A9217
:102DE000114603F0D9FF089909980A9A6B465A6070
:102DF00019604FF48073114603F0B4F80A980B90F1
:102E0000FFE70B98012853DCFFE740F26421C2F290
:102E1000000102910868496800F022FC40F240215C
:102E2000C2F2000103910868496800F019FC40F201
:102E30004C21C2F2000104910868496800F010FCBE
:102E400040F27021C2F2000105910868496800F063
:102E500007FC40F25821C2F2000106910868496857
:102E600000F0FEFB4FF47A70079000F0BFFF02996C
:102E70000868496800F0CCFB03990868496800F0CD
:102E8000C7FB04990868496800F0C2FB0599086807
:102E9000496800F0BDFB06990868496800F0B8FB76
:102EA000079800F0A3FFFFE70B9801300B90A8E70D
:102EB0000CB080BD80B584B00390029100208DF8E5
:102EC000070042F20040C4F2010000F053F8009005
:102ED00042F60000C4F2010000F04CF801460098F0
:102EE0000843B0B9FFE70298006850B1FFE70398C4
:102EF000406820F4702002990968084303994860EB
:102F000006E00398406820F4702003994860FFE7CA
:102F100003E001208DF80700FFE79DF8070004B0EB
:102F200080BD000080B584B00390029100208DF830
:102F30000700039800F01EF898B9FFE7039840686F
:102F400020F4807002994968084303994860039807
:102F5000806820F40060029909680843039988603A
:102F600003E001208DF80700FFE79DF8070004B09B
:102F700080BD000081B000900098806800F00100E2
:102F800001B0704780B584B00390029100208DF8A5
:102F900007000298406808B1FFE7FFE70398FFF7D2
:102FA000E9FF80BBFFE70298406860B1FFE7039844
:102FB000406820F46840029A5168926811430843BF
:102FC0000399486009E00398406820F4684002993A
:102FD0004968084303994860FFE7039880684FF603
:102FE000FD61CFF6F1710840029A1168D368126949
:102FF000194311430843039988600398029949686B
:1030000000F00AF803E001208DF80700FFE79DF8C3
:10301000070004B080BD000082B0019000910198CB
:10302000C06A20F47000009908430199C86202B098
:103030007047000084B003900291019203980299B6
:1030400001F4407100EB91102C3000900098006862
:10305000029901F01F021F2191408843019901F05C
:103060001F01914008430099086004B070470000B8
:1030700084B00390029101920398029901F00071CB
:1030800000EBD1500C300090009800680299C1F319
:1030900004520721914088430199914008430099C7
:1030A000086004B07047000082B00190019A41F2BC
:1030B0001400C4F202000168114301600068019924
:1030C00008400090009802B07047000082B0019064
:1030D000019A41F21C00C4F2020001681143016030
:1030E0000068019908400090009802B07047000005
:1030F00082B00190019A41F21800C4F20200016806
:10310000114301600068019908400090009802B0E6
:103110007047000082B00190019A41F21800C4F299
:1031200002000168114301600068019908400090A5
:10313000009802B07047000082B00190019A41F2FD
:103140001800C4F20200016811430160006801998F
:1031500008400090009802B07047000082B00190D3
:10316000019A41F21800C4F20200016811430160A3
:103170000068019908400090009802B07047000074
:1031800083B00290019100920298019947F6306352
:10319000C0F60003194411F8011C405820F44050B7
:1031A000009908430299019A1A4412F8012C885098
:1031B00003B0704783B00290019100920298019988
:1031C00047F63063C0F60003194411F8011C40585B
:1031D00044F210018843009908430299019A1A4465
:1031E00012F8012C885003B07047000083B00290A1
:1031F000019100920298019947F63063C0F60003EE
:10320000194411F8011C405820F08000009908432F
:103210000299019A1A4412F8012C885003B07047A1
:1032200083B00290019100920298019947F63063B1
:10323000C0F60003194411F8011C405820F4406006
:10324000009908430299019A1A4412F8012C8850F7
:1032500003B0704783B002900191009202980199E7
:1032600047F63063C0F60003194411F8011C4058BA
:1032700020F02000009908430299019A1A4412F89C
:10328000012C885003B0704783B0029001910092E6
:103290000298019947F63063C0F60003194411F80B
:1032A000011C405820F04000009908430299019AFF
:1032B0001A4412F8012C885003B0704783B0029072
:1032C000019100920298019947F63063C0F600031D
:1032D000194411F8011C405820F44070009908432B
:1032E0000299019A1A4412F8012C885003B07047D1
:1032F00081B00090009840F21441C4F201010860CE
:1033000001B0704781B00090009A40F20441C4F2CD
:10331000010108689043086001B0704781B00090D7
:10332000009A40F20C41C4F2010108689043086021
:1033300001B0704781B00090009A40F20041C4F2A1
:10334000010108689043086001B0704781B00090A7
:10335000009A40F20841C4F20101086890430860F5
:1033600001B0704781B00090009A40F20441C4F26D
:10337000010108681043086001B0704781B00090F7
:10338000009A40F20C41C4F2010108681043086041
:1033900001B0704781B00090009A40F20041C4F241
:1033A000010108681043086001B0704781B00090C7
:1033B000009A40F20841C4F2010108681043086015
:1033C00001B0704780B584B0039000208DF80B00E9
:1033D00003980079002867D0FFE703980068002869
:1033E00061D0FFE7039840790146019140B1FFE7C2
:1033F000019801280DD0FFE70198022812D01AE0A9
:1034000003980068FFF77EFF03980068FFF7C2FF8C
:1034100015E003980068FFF78DFF03980068FFF739
:10342000A1FF0CE003980068FFF7B4FF0398006861
:10343000FFF798FF03E001208DF80B00FFE70398EA
:10344000807978B3FFE703988079014600910128DD
:1034500008D0FFE7009802280DD0FFE70098032866
:1034600012D01AE003980068FFF758FF039800682D
:10347000FFF79CFF15E003980068FFF767FF0398CC
:103480000068FFF77BFF0CE003980068FFF78EFFF2
:1034900003980068FFF772FF03E001208DF80B002E
:1034A000FFE7FFE7FFE708E003980068FFF742FF48
:1034B00003980068FFF726FFFFE79DF80B0004B0B4
:1034C00080BD000081B0009040F21440C4F20100C1
:1034D000006800990840401AB0FA80F0400901B035
:1034E000704700000421C4F2010108680122C0F203
:1034F000007210430860704782B0019000919DF8FF
:1035000000000821C4F2010151F82000009A4FEA9E
:10351000124C20EA1240019B9CFAACFCBCFA8CFCD9
:1035200003FA0CF31843D2B241F8220002B07047FC
:1035300080B586B0059004910498B0F8010003901E
:10354000039890FAA0F0B0FA80F00290FFE7039899
:103550000299C840002849D0FFE703980299C84063
:10356000C00700283ED0FFE70298072806D8FFE7EB
:10357000029940F201108840019009E00298A0F100
:1035800008014FF00110884040F080600190FFE793
:1035900004984068082807D1FFE705980199049A24
:1035A000126900F0DFF8FFE705980199049A526864
:1035B00000F08EF804984068012805D0FFE70498D1
:1035C000406809280DD1FFE705980199049A92688F
:1035D00000F0DEF805980199049AD26800F092F89C
:1035E000FFE7FFE7029801300290B0E7002006B045
:1035F00080BD000082B00190009101988068BDF804
:1036000001100840401AB0FA80F0400902B070473B
:1036100082B001900091BDF801000199486102B0AB
:103620007047000082B001900091BDF8010001993F
:10363000486102B07047000082B001900091BDF86F
:1036400001000199486102B07047000082B001900A
:103650000091BDF801000199486102B07047000077
:1036600082B001900091BDF801000199086102B09B
:103670007047000082B001900091BDF801000199EF
:10368000086102B07047000082B001900091BDF85F
:1036900001000199086102B07047000084B00390F6
:1036A0000291019203989DF80B1008440090009934
:1036B0000868029A92FAA2F2B2FA82F293000F22FA
:1036C0009A409043019A9A401043086004B07047B2
:1036D00084B003900291019203989DF80B10084466
:1036E000009000990868029A92FAA2F2B2FA82F265
:1036F00093000F229A409043019A9A401043086029
:1037000004B0704784B003900291019203989DF831
:103710000B100844009000990868029A92FAA2F2ED
:10372000B2FA82F2930004229A409043019A9A409E
:103730001043086004B0704783B00290019100927A
:103740000298C06801990A0A20EA1120009992FAA9
:10375000A2F2B2FA82F2914008430299C86003B023
:103760007047000083B00290019100920298C068F7
:1037700001990A0A20EA1120009992FAA2F2B2FAFB
:1037800082F2914008430299C86003B0704700007C
:1037900084B003900291019203989DF80B100844A5
:1037A000009000990868029A92FAA2F2B2FA82F2A4
:1037B000930003229A409043019A9A401043086074
:1037C00004B0704784B0039002910398C0680190E0
:1037D000BDF809000090019A009802EA00019043A8
:1037E00040EA01400399086104B0704781B000903D
:1037F0000099086840F04000086001B07047000080
:1038000080B584B00390029101208DF807000398E1
:1038100000F046F8C0BBFFE7039800684FF6BF71A1
:103820008843029A00921168D2F804E0D2F808C0E6
:10383000D36841EA0E0141EA0C01194313691943A7
:103840005369194393691943D3691943126A1143A0
:103850000843039908600398406820F00400029927
:10386000C98A0843039948600298006AB0F5005F6E
:1038700006D1FFE703980299496A00F019F8FFE7BB
:1038800000208DF80700FFE79DF8070004B080BD19
:1038900081B0009000988068C0B2C00901B0704744
:1038A00081B0009000980068C0F3801001B07047AC
:1038B00082B001900091BDF800000199086102B04A
:1038C0007047000083B002908DF8071002980C300A
:1038D00000909DF807000099087003B07047000041
:1038E0004EF21001CEF20001086840F002000860BC
:1038F0007047000081B0009000996FF001000861EE
:1039000001B0704781B000900099086820F08000F5
:10391000086001B07047000081B00090009988688D
:1039200020F08000886001B07047000081B00090F6
:103930000099086840F00100086001B0704700007D
:1039400081B000900099C86840F00100C86001B0E3
:103950007047000081B000900099486940F0010074
:10396000486101B07047000081B000900098406A43
:1039700001B0704781B000900098406A01B0704774
:1039800081B000900098406A01B070478AB00990F9
:10399000089107920898012803D1FFE700200490BE
:1039A00030E00898042803D1FFE70120039026E0C7
:1039B0000898102803D1FFE7022002901CE0089825
:1039C000402803D1FFE70320019012E00898B0F5EA
:1039D000807F03D1FFE70420009007E008990620CC
:1039E000B1F5806F08BF05200090FFE700980190B7
:1039F000FFE701980290FFE702980390FFE7039822
:103A00000490FFE704988DF81B0009989DF81B208F
:103A10004EF66A01C0F60001895C08441830059032
:103A2000059800689DF81B204EF67801C0F600014D
:103A30008A5C032191408843BDF81E1091400843E1
:103A4000059908600AB070478AB0099008910792FA
:103A50000898012803D1FFE70020049030E008987F
:103A6000042803D1FFE70120039026E008981028DE
:103A700003D1FFE7022002901CE00898402803D100
:103A8000FFE70320019012E00898B0F5807F03D192
:103A9000FFE70420009007E008990620B1F5806F49
:103AA00008BF05200090FFE700980190FFE701980C
:103AB0000290FFE702980390FFE703980490FFE766
:103AC00004988DF81B0009989DF81B204EF66A019A
:103AD000C0F60001895C084418300590059800681C
:103AE0009DF81B204EF67801C0F600018A5CF0219B
:103AF00091408843BDF81E10914008430599086025
:103B00000AB0704789B0089007910692079801287B
:103B100003D1FFE70020049030E00798042803D188
:103B2000FFE70120039026E00798102803D1FFE764
:103B3000022002901CE00798402803D1FFE70320F1
:103B4000019012E00798B0F5807F03D1FFE70420D1
:103B5000009007E007990620B1F5806F08BF0520A7
:103B60000090FFE700980190FFE701980290FFE7BF
:103B700002980390FFE703980490FFE704988DF8FC
:103B800017000898006A9DF817204EF67101C0F6DC
:103B900000018A5C0A2191408843069991400843BC
:103BA0000899086209B070478AB009900891079295
:103BB0000898012803D1FFE70020049030E008981E
:103BC000042803D1FFE70120039026E0089810287D
:103BD00003D1FFE7022002901CE00898402803D19F
:103BE000FFE70320019012E00898B0F5807F03D131
:103BF000FFE70420009007E008990620B1F5806FE8
:103C000008BF05200090FFE700980190FFE70198AA
:103C10000290FFE702980390FFE703980490FFE704
:103C200004988DF81B0009989DF81B204EF66A0138
:103C3000C0F60001895C08441830059005980068BA
:103C40009DF81B204EF67801C0F600018A5C0C211D
:103C500091408843BDF81E109140084305990860C3
:103C60000AB0704780B584B0039002910398006851
:103C70000190039842F60041C4F20101884215D038
:103C8000FFE70398B0F1804F10D0FFE7039840F2B0
:103C90000041C4F20001884208D0FFE7039840F6D3
:103CA0000001C4F20001884208D1FFE7019820F02A
:103CB00070000299496808430190FFE7039842F6B3
:103CC0000041C4F20101884215D0FFE70398B0F12A
:103CD000804F10D0FFE7039840F20041C4F200018A
:103CE000884208D0FFE7039840F60001C4F20001C3
:103CF000884208D1FFE7019820F440700299C96812
:103D000008430190FFE7019803990860039802991E
:103D1000896800F021F803980299098800F048F8B2
:103D2000039842F60041C4F20101884206D1FFE740
:103D300003980299096900F043F8FFE70398FFF739
:103D400009FE002004B080BD81B000900098006999
:103D500000F0010001B0704782B00190009100981E
:103D60000199C86202B0704782B001900091019839
:103D7000806844F2070188430099084301998860EC
:103D800002B0704782B0019000910098019948629A
:103D900002B0704782B0019000910198806820F0D5
:103DA0000700009908430199886002B0704700003D
:103DB00082B00190009100980199886202B070472A
:103DC00082B00190009100980199086302B0704799
:103DD00082B0019000910198406820F07000009935
:103DE00008430199486002B07047000082B001901A
:103DF0004EF21000CEF2000000680090009801988A
:103E0000013020B1FFE7019801300190FFE7FFE7A3
:103E1000019870B1FFE74EF21000CEF2000000688A
:103E2000C003002804D5FFE7019801380190FFE79F
:103E3000EEE702B07047000080B540F21020C2F2F9
:103E40000000807AC00748B1FFE700F0CBF840F2ED
:103E50001021C2F2000100208872FFE740F220200A
:103E6000C2F20000807AC00748B1FFE700F0E0F836
:103E700040F22021C2F2000100208872FFE780BDDD
:103E800080B584B0012102910222084602F026FF8B
:103E90000298032141F27072039202F01FFF039A0D
:103EA0000298042102F01AFF02980621082202F06B
:103EB00015FF02980E210022019202F00FFF019AD5
:103EC000029840F2012102F009FF029840F202211B
:103ED0000B2202F003FF029840F203214FF4C87254
:103EE00002F0FCFE02984FF40171172202F0F6FE78
:103EF000039A029840F2052102F0F0FE029840F287
:103F0000062140F6025202F0E9FE00F091F840F27C
:103F10000040C4F20000FFF733FD019B029A014606
:103F2000039840F2043CC2F2000CACF8001040F2DE
:103F3000EC21C2F200010B608B71CA71888004B061
:103F400080BD000080B582B08DF8070040F2EC2003
:103F5000C2F20000C07998B9FFE79DF8070038B9B0
:103F6000FFE74FF400510122104602F0B7FE06E0D1
:103F700001204FF40051022202F0B0FEFFE7FFE7FC
:103F80009DF8070040F2EC21C2F20001887102B0F6
:103F900080BD000081B0ADF80200BDF9021040F212
:103FA000EC20C2F2000001600068B0F1FF3F07DCC6
:103FB000FFE740F2EC21C2F2000100200860FFE7B9
:103FC00040F2EC21C2F2000108688988884207DDCE
:103FD000FFE740F2EC21C2F2000188880860FFE7A9
:103FE00001B0704780B582B040F2EC20C2F2000010
:103FF00000908079FFF7A6FF0098016848F68900D5
:10400000C8F6880081FB00200144480900EBD1700C
:1040100064214843ADF80600BDF8062001204FF4A6
:10402000405102F05BFE00990020C87102B080BDD3
:1040300080B582B0012001904FF40051052202F0BA
:104040004DFE019840F2EC21C2F20001C87102B0AD
:1040500080BD000080B592B00020049011901090B7
:104060000F900E900D900C900B900A900990089074
:104070000790069005904FF400700190FFF74AF802
:104080001020FFF747F8049840F20441059106908C
:1040900041F20000C4F2010005A9FFF749FA01F05E
:1040A000F1FC049A022100F095FC014612200090D8
:1040B00001F032FD009801F065FC04981090119019
:1040C00042F20040C4F20100029010A9FEF72AFF5C
:1040D000049902980F910FA9FEF7ECFE049902983B
:1040E0004FF460220A920B910C910D910E910AA946
:1040F000FEF748FF019902980C22C0F26002039279
:10410000FEF798FF02980399049AFEF7B1FF12B0E8
:1041100080BD000080B590B0002003900F900E90FD
:104120000D900C900B900A900990089007900690C3
:10413000059004904FF48060FEF7ECFF1020FEF72E
:10414000E9FF039840F608010491059041F2000050
:10415000C4F2010004A9FFF7EBF901F093FC039A04
:10416000022100F037FC01461220009001F0D4FC3F
:10417000009801F007FC03980E900F9042F60000A3
:10418000C4F2010001900EA9FEF7CCFE039901983C
:104190004FF4602209920A910B910C910D9109A99B
:1041A000FEF7F0FE01984FF400710D22C0F290026C
:1041B0000292FEF73FFF01980299039AFEF758FF1B
:1041C00010B080BD80B584B00120FEF76DFF0C20DB
:1041D0000190002202921146FDF724FB0198FDF7A1
:1041E00017FB01F057FC029A114600F029FC01462A
:1041F0000D20039001F0B2FC039801F0DBFB04B04A
:1042000080BD000010B59EB0002015901D901C9040
:104210001B901A9019901890179010200490FEF798
:1042200067FF20200590FEF763FF04200790FEF74C
:104230005FFF08201290FEF75BFF41F20000C4F21E
:1042400001000A904CF2FF01C0F27F410091FFF79C
:10425000E9F940F60000C4F20100089040F60901B7
:10426000C0F201410191FFF7DDF940F60040C4F2D0
:1042700001000D904DF2F441C0F2F0410291FFF7C0
:10428000D1F9009A0A981599179201220F92189263
:104290000222149219921A9117A90391FFF748F973
:1042A0000399DDF83CC0149B159ADDF804E00898EA
:1042B000CDF85CE0CDF860C019931A92FFF738F999
:1042C0000399079A089842F220030B9317931892C8
:1042D000FFF72EF90399DDF83CC0149B159ADDF821
:1042E00008E00D98CDF85CE0CDF860C019931A9203
:1042F000FFF71EF90399079A0D980123C0F20143B5
:1043000017931892FFF714F915984FF07061FFF7A3
:10431000F3F814980121C0F20F01FFF7EDF814989B
:104320000121C0F2F001FFF7E7F80F984FF4702178
:10433000FFF7E2F80F984FF47001FFF7DDF8079AE6
:104340000F9815991C928DF874008DF875108DF8E2
:1043500076001CA80690FFF735F8049B0F99159A74
:1043600006981C938DF874108DF875208DF87610D2
:10437000FFF728F8059B0F99159A06981C938DF85E
:1043800074108DF875208DF87610FFF71BF80F99D3
:10439000159A06981C918DF874108DF875208DF87B
:1043A0007610FFF70FF80F99149B159A06981C9337
:1043B0008DF874108DF875208DF87610FFF702F8DF
:1043C000079A089840F20441FFF768F90A98129A90
:1043D00041F210010991FFF761F90A980B99129ABD
:1043E000FFF75CF90D98129A40F201110C91FFF75A
:1043F00055F90D98129A40F202210E91FFF74EF9ED
:1044000009990A980F9AFFF797F90A980B990F9A4A
:10441000FFF792F90C990D980F9AFFF78DF90D9807
:104420000E990F9AFFF788F901F024FB1499159A59
:1044300000F09AFA01460620109001F04BFB10980C
:1044400001F088FA01F016FB1499159A00F08CFA25
:1044500001460720119001F03DFB119801F07AFA16
:1044600001F008FB1499159A00F07EFA01461298A3
:1044700001F030FB129801F06DFA01F0FBFA14998B
:10448000159A00F071FA01460A20139001F022FB00
:10449000139801F05FFA01F0EDFA1499159A00F003
:1044A00063FA01461720169001F014FB169801F0EC
:1044B00051FA1EB010BD000080B596B00CA8069051
:1044C00028210491FBF7F0FE002005900B900A9044
:1044D0000990089007904FF48050FEF72DFE0820B9
:1044E000FEF72AFE059842F6280107910921089156
:1044F0000321019109910A9040F60040C4F20100A5
:1045000007A9FFF715F8FEF7EDFF01990020C4F2A7
:10451000020000901022FEF74DFE00980199059AC6
:10452000FEF72EFE00980199059AFEF793FE00987B
:104530000199059AFEF7A8FE009801998022FEF7DE
:1045400055FE00980199059AFEF7B8FE009801996A
:10455000059AFEF765FE01F0A5FA059A022103917E
:1045600000F0A4FA01462320029001F019FB029802
:1045700001F038FA039B049A059806990C904FF4C1
:10458000827CCDF834C00E900F93012310934FF42A
:10459000007311931292139014900A20159043F215
:1045A0000000C4F20100FFF72BF916B080BD000037
:1045B00080B588B000200190079006900590049087
:1045C00003904FF40060FEF7C9FD01F073FA019A01
:1045D000114600F0A1FA01461920009001F002FBFB
:1045E000009801F017FA01984FF4E151ADF80C1062
:1045F000049042F20F7105910690079042F6004038
:10460000C4F20100029003A9FFF72CFB0298FFF708
:1046100079F901990298FFF7A7FB01990298FFF732
:10462000D7FB0298FFF778F908B080BD80B590B04D
:10463000002004900F900E900D900C900B900A901B
:10464000099008900790069001200190FEF73EFD2A
:1046500004200090FEF782FD009840F2033106919D
:10466000079040F60000C4F2010006A9FEF760FFC3
:104670004FF0804005900321FFF78CFB01990598CE
:104680004FF480320292FFF781F90199049A05985C
:10469000FFF78AFA0199049A0598FFF7D5F901996D
:1046A000049A0598FFF72EFA029A059810210391B3
:1046B000FFF76CF90399049A0598FFF775FA0399C7
:1046C000049A0598FFF7C0F90399049A0598FFF733
:1046D00019FA04990598ADF82C100C914FF6FF7259
:1046E0000D920E910BA9FFF7BDFA0598FFF70AF995
:1046F00004990598FFF76CFB0598FFF70DF910B0CA
:1047000080BD000080B592B00020069011901090FE
:104710000F900E900D900C900B900A9009900890BD
:1047200002200190FEF7D2FC04200090FEF716FD57
:1047300000984CF2C0010891099040F60000C4F2C4
:10474000010008A9FEF7F4FE01F0B4F90199069AF8
:1047500000F0E2F901461D20029001F043FA0298B0
:1047600001F058F940F20040C4F200000790012126
:104770000391FFF70FFB039907984FF480320492DF
:10478000FFF704F90399069A0798FFF70DFA0399C2
:10479000069A0798FFF758F90399069A0798FFF7C2
:1047A000B1F9049A079810210591FFF7EFF80599E0
:1047B000069A0798FFF7F8F90599069A0798FFF700
:1047C00043F90599069A0798FFF79CF90699079807
:1047D000ADF834100E914FF6FF720F9210910DA9A3
:1047E000FFF740FA0798FFF78DF806990798FFF74B
:1047F000EFFA0798FFF790F812B080BD80B588B047
:1048000000200190079006900590049003900420EA
:10481000FEF75CFC01F04EF9019A022100F07CF9F0
:1048200001461E20009001F0DDF9009801F0F2F839
:1048300001984821ADF80C1004904FF47A7105915D
:10484000069040F60000C4F20000029003A9FFF7B2
:1048500009FA0298FFF756F801990298FFF784FACF
:1048600001990298FFF7B4FA0298FFF755F808B0DB
:1048700080BD000080B582B040F20C10C2F2000092
:10488000019043F60001C4F2010101604FF4E131EF
:10489000416000218160C16001610C22426181613F
:1048A000C161FEF749F818B1FFE7FCF765F9FFE7CA
:1048B00002B080BD80B582B040F28410C2F2000028
:1048C000019044F60001C4F2000101604FF49641EA
:1048D00041604FF4805181600021C1604FF48062DB
:1048E00002610C2242618161C161FEF725F818B1B5
:1048F000FFE7FCF741F9FFE702B080BDFFE7FEE705
:1049000040F21C00C2F2000000680078C00750B9F5
:10491000FFE740F2D821C2F200014FF49660086030
:10492000322048600EE040F21C00C2F20000016834
:10493000CA6840F2D821C2F200010A60006800692A
:104940004860FFE740F2D821C2F2000100208860F1
:10495000C8608874C87440F29101C2F20001087006
:1049600070470000FFE7FEE788B0079006910592C8
:10497000079800F0070004900498C0F1070005288C
:1049800003D3FFE70420019004E00498C0F107007E
:104990000190FFE70198039004980430062803D89B
:1049A000FFE70020009003E0049803380090FFE741
:1049B0000098029006980399012202FA01F1013948
:1049C0000840029B984005999A40013A11400843DB
:1049D00008B0704788B0079006910592079800F0DC
:1049E000070004900498C0F10700052803D3FFE7EF
:1049F0000420019004E00498C0F107000190FFE753
:104A00000198039004980430062803D8FFE700209B
:104A1000009003E0049803380090FFE700980290AC
:104A200006980399012202FA01F101390840029B1C
:104A3000984005999A40013A1140084308B07047E0
:104A400088B0079006910592079800F0070004903F
:104A50000498C0F10700052803D3FFE70420019064
:104A600004E00498C0F107000190FFE7019803906B
:104A700004980430062803D8FFE70020009003E0E4
:104A8000049803380090FFE7009802900698039975
:104A9000012202FA01F101390840029B9840059970
:104AA0009A40013A1140084308B0704788B0079017
:104AB00006910592079800F0070004900498C0F151
:104AC0000700052803D3FFE70420019004E00498C1
:104AD000C0F107000190FFE70198039004980430AB
:104AE000062803D8FFE70020009003E0049803386D
:104AF0000090FFE70098029006980399012202FABD
:104B000001F101390840029B984005999A40013A09
:104B10001140084308B0704788B00790069105928D
:104B2000079800F0070004900498C0F107000528DA
:104B300003D3FFE70420019004E00498C0F10700CC
:104B40000190FFE70198039004980430062803D8E9
:104B5000FFE70020009003E0049803380090FFE78F
:104B60000098029006980399012202FA01F1013996
:104B70000840029B984005999A40013A1140084329
:104B800008B0704788B0079006910592079800F02A
:104B9000070004900498C0F10700052803D3FFE73D
:104BA0000420019004E00498C0F107000190FFE7A1
:104BB0000198039004980430062803D8FFE70020EA
:104BC000009003E0049803380090FFE700980290FB
:104BD00006980399012202FA01F101390840029B6B
:104BE000984005999A40013A1140084308B070472F
:104BF0007047000082B00190019840F20001C2F2BB
:104C000000010968C90844F6D352C1F26202A1FB4F
:104C10000221890948430090FFE700BFFFE70098A1
:104C2000411E00910028F8D1FFE702B07047000054
:104C300082B0ADF80600BDF9060040F20631C2F2BE
:104C40000001B1F90020801A0090009B40F2103260
:104C5000C2F20002106818441060BDF80600088017
:104C600002B070477047000080B582B08DF8070031
:104C700000F022F900F034F99DF8070000F0FAF88E
:104C800000F010F902B080BD80B582B08DF8070049
:104C900000F012F900F01AF99DF8070000F0EAF8A8
:104CA00000F000F902B080BD80B586B000F022F9B6
:104CB00000F0A2F90A20049000F0A8F900F092F99F
:104CC0003220059000F0A2F9FD200390FFF7CCFF01
:104CD0001220FFF7D9FFAE20FFF7C6FFB320FFF782
:104CE000C3FF9120FFF7D0FFCA20FFF7BDFF3F2091
:104CF000FFF7CAFFA220FFF7B7FF00200190FFF7E0
:104D0000C3FFA120FFF7B0FF0198FFF7BDFFA02070
:104D10000290FFF7A9FF1420FFF7B6FF1120FFF75D
:104D2000B3FFB520FFF7A0FF0198FFF7ADFFAB2061
:104D3000FFF79AFF0120FFF7A7FFB420FFF794FFCA
:104D40000298FFF7A1FF0398FFF79EFFC120FFF72E
:104D50008BFFFF20FFF798FFC720FFF785FF0F208D
:104D6000FFF792FFB920FFF77FFFB120FFF77CFF2D
:104D7000E220FFF789FFD120FFF776FF8220FFF7BF
:104D800083FF2020FFF780FFBB20FFF76DFF1F2070
:104D9000FFF77AFFB620FFF767FF0820FFF774FFE1
:104DA000BE20FFF761FF0720FFF76EFFA620FFF789
:104DB0005BFFA920FFF758FF049800F027F9AF2008
:104DC000FFF752FF059800F021F906B080BD000002
:104DD00080B582B0019000915C20FFF745FF00F0A4
:104DE0006BF800F073F80198009900F02BF800F0D0
:104DF00059F802B080BD000080B582B08DF8070080
:104E00008DF806108DF805208DF804301520FFF779
:104E10002BFF9DF807001C30C0B2FFF735FF9DF84F
:104E200006001C30C0B2FFF72FFF7520FFF71CFFF4
:104E30009DF80500FFF728FF9DF80400FFF724FF09
:104E400002B080BD80B584B0039002910020019033
:104E5000FFE70198029988420AD2FFE70398019977
:104E6000405C00F007F8FFE7019801300190F0E79F
:104E700004B080BD80B582B08DF807009DF80710A2
:104E800043F20000C4F20100FEF71CFDFFE743F20D
:104E90000000C4F20100FEF7FBFC08B1FFE7F6E7F3
:104EA00002B080BD80B540F60040C4F2010041F27E
:104EB0001001FEF7DFFB80BD80B540F60040C4F274
:104EC000010041F21001FEF7B7FB80BD80B540F64E
:104ED0000040C4F2010044F24001FEF7CBFB80BD6C
:104EE00080B540F60040C4F2010044F24001FEF7F4
:104EF000A3FB80BD10B590B040F60040C4F20100A5
:104F00000A9041F210010991FEF796FB0A9844F2CB
:104F100040010191FEF790FB0A9848F2800104914C
:104F2000FEF78AFB0A98099A002107910F910E91CA
:104F30000D910C910B910B92012202920C92022284
:104F400003920D920E910BA90891FEF7F1FADDF88C
:104F500008C0039B079A0899DDF804E00A98CDF889
:104F60002CE0CDF830C00D930E92FEF7E1FADDF89B
:104F700008C0039B079A0899DDF810E00A98CDF85D
:104F80002CE0CDF830C00D930E92FEF7D1FA079ABF
:104F900008990A9840F608030B93092305930C938C
:104FA000032306930D930E92FEF7C2FADDF814C0A8
:104FB000069B079A08990A9842F2200ECDF82CE039
:104FC000CDF830C00D930E92FEF7B2FA09990A9807
:104FD000FEF750FB43F20000C4F20100FEF706FCAE
:104FE00010B010BD80B540F60040C4F2010048F298
:104FF0008001FEF73FFB80BD80B540F60040C4F263
:10500000010048F28001FEF717FB80BD80B582B039
:1050100001900198FEF7EAFE02B080BD70470000E3
:1050200080B582B0009000980138B0F1807F03D342
:10503000FFE70120019019E0009801384EF21401B9
:10504000CEF2000108604FF0FF300F2100F0ECFDC0
:105050004EF21801CEF20001002008604EF210025C
:10506000CEF20002072111600190FFE7019802B023
:1050700080BD000080B5FCF73FFB80BD80B596B0D9
:105080000CA801902821FBF70FF901980023029347
:105090000B930A930993089307930693059304933C
:1050A000039301220C924FF480310D910E931092D4
:1050B0000222139214914FF480111591FCF76CFEAB
:1050C00018B1FFE7FBF758FDFFE70F20079002211B
:1050D0000891002009904FF480620A920B9007A873
:1050E000FCF7A6FC18B1FFE7FBF746FDFFE702203F
:1050F00003904FF40040059003A8FCF7B5FB18B1EE
:10510000FFE7FBF739FDFFE716B080BD70470000F1
:1051100080B542F60040C4F20100FEF715FE0028FB
:105120006CD0FFE740F2FE10C2F200000078C0072A
:1051300048B9FFE740F25821C2F200010868496807
:10514000FEF740FBFFE740F2EC20C2F20000C0791E
:1051500048B9FFE740F27021C2F2000108684968CF
:10516000FEF730FBFFE740F2EC20C2F20000C0790E
:10517000012809D1FFE740F26421C2F2000108686A
:105180004968FEF71FFBFFE740F22000C2F2000073
:105190000078C00748B1FFE740F21431C2F20001C5
:1051A0000A78012090430870FFE740F28800C2F2BD
:1051B00000000078C00748B1FFE740F28901C2F261
:1051C00000010A78012090430870FFE740F2FC10CC
:1051D000C2F200000078C00748B1FFE740F2FD11BD
:1051E000C2F200010A78012090430870FFE742F6FE
:1051F0000040C4F20100FEF77DFBFFE780BD000028
:105200007047000080B582B040F60000C4F2000094
:10521000FEF79AFD002800F0DF80FFE740F600006F
:10522000C4F20000FEF766FB40F21630C2F2000046
:105230000088C00718B9FFE7FEF7FEFDC4E0FBF7E2
:1052400041FB4FF08040FEF78FFB014640F28C009F
:10525000C2F200000160B0F90000FFF7E9FC40F283
:105260001030C2F20000006801F027FE0022002387
:10527000C3F6707301F038FE01F0EEFD40F2083124
:10528000C2F20001086040F29100C2F20000007812
:1052900001282BD1FFE740F2EC20C2F20000C079D8
:1052A00020BBFFE740F21030C2F20000006840F27D
:1052B000D821C2F20001C9684942884216DCFFE7E2
:1052C00040F2D820C2F20000C07CC00770B9FFE7EE
:1052D00001200190FEF736FE019840F2D821C2F27B
:1052E00000014A7C01324A74C874FFE740F2910021
:1052F000C2F20000007838BBFFE740F2EC20C2F2B7
:105300000000C07900BBFFE740F21030C2F200009D
:10531000006840F2D821C2F20001896849428842FF
:1053200012DCFFE740F2D820C2F20000807CC00708
:1053300050B9FFE740F2D821C2F20001087C0130E9
:10534000087401208874FFE740F29100C2F2000067
:10535000007801281AD1FFE740F2EC20C2F20000E9
:10536000C07998B9FFE740F21030C2F2000000683F
:1053700000280BD4FFE700200090FEF7E3FD009823
:1053800040F2D821C2F20001C874FFE740F2910058
:10539000C2F200000078B0B9FFE740F2EC20C2F2A0
:1053A0000000C07978B9FFE740F21030C2F2000087
:1053B0000068002807D4FFE740F2D821C2F20001BC
:1053C00000208874FFE7FFE740F21631C2F20001C7
:1053D000088801300880FFE702B080BD80B582B048
:1053E00001900198406A009000990020C8850099BA
:1053F000C8840098816D884702B080BD80B584B0B4
:105400000390002002900398406A01900198006880
:105410004069C0B2C0090290019890F8410021286B
:105420000AD1FFE7029838B1FFE701990020C8844C
:10543000019800F0C9F8FFE7019800684069C0F3DF
:1054400080100290019890F8420022280AD1FFE7CC
:10545000029838B1FFE701990020C885019800F053
:1054600055F8FFE70199486C40F010004864019836
:10547000816D884704B080BD80B584B003900398E7
:10548000406A0290039800680068800600282AD4C9
:10549000FFE702990020C884FFE7FFE70298006851
:1054A00050E8050F20F080000190FFE70199029875
:1054B000026842E805100028F0D1FFE7FFE7FFE7A8
:1054C000FFE70298006850E8030F40F040000090AA
:1054D000FFE700990298026842E803100028F0D123
:1054E000FFE7FFE703E00298C16C8847FFE704B0DD
:1054F00080BD000080B582B001900198406A0090A4
:105500000098816C884702B080BD000084B0039091
:10551000FFE7FFE70398006850E8030F20F490705E
:105520000290FFE702990398026842E803100028FE
:10553000F0D1FFE7FFE7FFE7FFE70398006850E8D7
:10554000050F20F001000190FFE701990398026820
:1055500042E805100028F0D1FFE7FFE70398006B51
:10556000012814D1FFE7FFE7FFE70398006850E840
:10557000030F20F010000090FFE7009903980268E5
:1055800042E803100028F0D1FFE7FFE7FFE70399A7
:10559000202081F8420003990020086304B070477E
:1055A00080B582B0019001980168C86820F0400081
:1055B000C8600199202081F841000198C16C88479A
:1055C000002002B080BD000082B00190FFE7FFE73D
:1055D0000198006850E8030F20F0C0000090FFE73A
:1055E00000990198026842E803100028F0D1FFE713
:1055F000FFE70199202081F8410002B070470000C8
:1056000081B00090009942F6A550C0F60000886471
:10561000009942F69D50C0F60000C864009942F619
:10562000B140C0F600000865009942F6A940C0F6F6
:1056300000004865009942F20550C0F600008865F8
:10564000009942F23140C0F60000C865009942F26C
:10565000FD40C0F600000866009942F23940C0F6ED
:1056600000004866009942F22540C0F60000C86676
:1056700001B0704780B586B00490049890F842005D
:10568000222840F0A480FFE704988068B0F5805F8E
:1056900015D1FFE70498006988B9FFE7002003905F
:1056A0000498806A02900498006840686FF35F2055
:1056B000029908800499886A0230886225E004987B
:1056C000806A03900020029004988068B0F5805FA3
:1056D00008D0FFE70498806850B9FFE70498006994
:1056E00030B9FFE70498006840680399087007E044
:1056F00004980068406800F07F0003990870FFE795
:105700000499886A01308862FFE70499C88D0138DE
:10571000C8850004002856D1FFE704980168C868CE
:1057200020F02000C86004980168C86820F48070E8
:10573000C86004980168486920F001004861049934
:10574000202081F842000499002048630498006BEF
:10575000012830D1FFE7049900200863FFE7FFE745
:105760000498006850E8030F20F010000190FFE754
:1057700001990498026842E803100028F0D1FFE77D
:10578000FFE7049800680068C00600280ED5FFE710
:10579000FFE70020009004980068006800900498DB
:1057A0000068406800900098FFE7FFE70498C26E29
:1057B000818D904703E00498416D8847FFE7002002
:1057C0008DF8170007E000208DF8170003E0022095
:1057D0008DF81700FFE79DF8170006B080BD0000A8
:1057E00080B584B0039003980068006920F44050AD
:1057F000039A1168D26810430861039988680A699E
:10580000496910430843029003980068C06841F258
:105810000C6188430299084303990968C86003989A
:105820000068406920F44070039A1168926910433F
:1058300048610398006843F60001C4F20101884200
:1058400004D1FFE7FCF738FA019003E0FCF722FAF5
:105850000190FFE7019819214843039A11685268A3
:105860009200B0FBF2FC48F21F52C5F2EB12ACFB07
:1058700002304309642003FB10CC322000EB0C10F3
:10588000A0FB0202F02000EA521000EB0310C2F36A
:1058900043121044886004B080BD000083B00190C2
:1058A000019890F8410021283AD1FFE701988068DB
:1058B000B0F5805F13D1FFE70198006978B9FFE781
:1058C0000198006A0090009800886FF35F200199AA
:1058D000096848600199086A0230086208E0019A84
:1058E000106A411C11620078019909684860FFE75D
:1058F0000199C88C0138C884000468B9FFE7019891
:105900000168C86820F08000C86001980168C86814
:1059100040F04000C860FFE700208DF80B0003E076
:1059200002208DF80B00FFE79DF80B0003B07047D5
:1059300080B540F20C10C2F20000FCF7E7FD80BD1C
:1059400080B540F28410C2F20000FCF7DFFD80BD9C
:10595000FFE7FEE781B08DF803009DF90300002802
:105960000ED4FFE79DF9031001F01F0201209040C3
:105970004A094EF20011CEF2000141F82200FFE781
:1059800001B0704781B08DF803009DF90300002835
:105990000ED4FFE79DF9031001F01F020120904093
:1059A0004A094EF20011CEF2000141F82200FFE751
:1059B00001B0704781B08DF803009DF90300002805
:1059C0000ED4FFE79DF9031001F01F020120904063
:1059D0004A094EF20011CEF2000141F82200FFE721
:1059E00001B0704781B08DF803009DF903000028D5
:1059F0000ED4FFE79DF9031001F01F020120904033
:105A00004A094EF20011CEF2000141F82200FFE7F0
:105A100001B0704781B08DF803009DF903000028A4
:105A20000ED4FFE79DF9031001F01F020120904002
:105A30004A094EF20011CEF2000141F82200FFE7C0
:105A400001B0704781B08DF803009DF90300002874
:105A50000ED4FFE79DF9031001F01F0201209040D2
:105A60004A094EF20011CEF2000141F82200FFE790
:105A700001B070474EF60C50CEF200000068C0F343
:105A8000022070474EF60C50CEF200000068C0F3C2
:105A9000022070474EF60C50CEF200000068C0F3B2
:105AA000022070474EF60C50CEF200000068C0F3A2
:105AB000022070474EF60C50CEF200000068C0F392
:105AC000022070474EF60C50CEF200000068C0F382
:105AD0000220704782B08DF8070000919DF9070001
